:020000040000FA
:100000000030032015020000390200003D0200000C
:100010003502000035020000350200003502000004
:10002000000000000000000000000000410200008D
:1000300035020000000000004502000049020000F7
:100040004D0200005102000055020000590200005C
:100050005D0200006102000065020000690200000C
:100060006D020000710200007502000079020000BC
:100070007D0200008102000085020000890200006C
:100080008D0200009102000095020000990200001C
:100090009D020000A1020000A5020000A9020000CC
:1000A000AD020000B1020000B5020000B90200007C
:1000B000BD020000C1020000C5020000C90200002C
:1000C000CD020000D1020000D5020000D9020000DC
:1000D000DD020000E1020000E5020000E90200008C
:1000E000ED020000F1020000F5020000F90200003C
:1000F000FD020000010300000503000009030000E9
:100100000D03000011030000150300001903000097
:100110001D03000021030000250300002903000047
:100120002D030000310300003503000039030000F7
:1001300000000000000000000000000000000000BF
:1001400000000000000000000000000000000000AF
:10015000000000000000000000000000000000009F
:10016000000000000000000000000000000000008F
:10017000000000000000000000000000000000007F
:10018000000000000000000000000000000000006F
:10019000000000000000000000000000000000005F
:1001A000000000000000000000000000000000004F
:1001B000000000000000000000000000000000003F
:1001C000000000000000000000000000000000002F
:1001D000000000000000000000000000000000001F
:1001E000000000000000000000000000000000000F
:1001F00000000000000000000000000000000000FF
:10020000DFF80CD000F030F9004800474916000034
:100210000030032072B6044880F30A880348804700
:1002200062B60348004700BF002C032031120000D3
:1002300001020000FFF7FEBF40480047404800476A
:100240004048004740480047404800474048004772
:100250004048004740480047404800474048004762
:100260004048004740480047404800474048004752
:100270004048004740480047404800474048004742
:100280004048004740480047404800474048004732
:100290004048004740480047404800474048004722
:1002A0004048004740480047404800474048004712
:1002B0004048004740480047404800474048004702
:1002C00040480047404800474048004740480047F2
:1002D00040480047404800474048004740480047E2
:1002E00040480047404800474048004740480047D2
:1002F00040480047404800474048004740480047C2
:1003000040480047404800474048004740480047B1
:1003100040480047404800474048004740480047A1
:100320004048004740480047404800474048004791
:100330004048004740480047404800473902000015
:100340003D02000041020000450200004902000099
:1003500035020000350200003502000035020000C1
:1003600035020000350200003502000035020000B1
:1003700035020000350200003502000035020000A1
:100380003502000035020000350200003502000091
:100390003502000035020000350200003502000081
:1003A0003502000035020000350200003502000071
:1003B0003502000035020000350200003502000061
:1003C0003502000035020000350200003502000051
:1003D0003502000035020000350200003502000041
:1003E0003502000035020000350200003502000031
:1003F0003502000035020000350200003502000021
:100400003502000035020000350200003502000010
:100410003502000035020000350200003502000000
:1004200035020000350200003502000035020000F0
:1004300035020000350200003502000035020000E0
:1004400010B540EA01040346A40703D009E010C92F
:10045000121F10C3042AFAD203E011F8014B03F86B
:10046000014B521EF9D210BD064C074D06E0E06864
:1004700040F0010394E8070098471034AC42F6D3EB
:10048000FFF7C2FEB0190000D019000080B584B09B
:100490002020039000F094FE41F60030C0F2B70037
:1004A00000F05AFB49F20811C0F210010290084610
:1004B00000F044F84DF60000C0F2B850019000F092
:1004C0004BFB01990090084600F08EFE019800F069
:1004D00083FA01210022039800F04CFA49F2084007
:1004E000C0F2100000F02AF840F20800C2F200004A
:1004F0000199016004B080BD80B586B00D2000F088
:1005000071F840F20110059041F20001C4F20001BF
:1005100000221D23039008460291114601921A46BB
:10052000039B00F037FE039804901E220298019965
:10053000039B00F02FFE06B080BD000085B0049044
:100540000498029040F26020C4F2000000900498E9
:10055000B0F1004F44D0FFE700200190FFE7019881
:1005600001283CD8FFE70298002801D1FFE736E0D8
:1005700002986FF31F30ADF80C00BDF80C00002896
:1005800025D0FFE79DF80C008DF80F00BDF80C009A
:1005900000F470604FF0FF3101EB10208DF80E0079
:1005A0009DF80F003F2809D1FFE79DF80E00982124
:1005B000C4F202010A681043086007E09DF80E00CB
:1005C00000999DF80F2041F82200FFE7FFE702980D
:1005D000000B0290FFE7019801300190BFE7FFE7B1
:1005E00005B0704782B00146ADF806009DF80700DF
:1005F00000909DF80600012202FA00F0009A40F2F5
:100600002023C4F2000343F8220002B07047000028
:1006100080B582B00020019040F28820C4F2000032
:1006200000680728009025D80099DFE801F0040849
:100630000C1014181C2000F037F8019026E000F090
:100640008DF9019022E000F087F801901EE000F0A3
:1006500003F901901AE000F0F1F8019016E000F0C3
:1006600083F9019012E000F045F901900EE00020BE
:1006700001900BE041F68010C0F2000041F66911D4
:10068000C0F200014FF4EA7200F002FE019840F25D
:100690008431C4F200010968012252FA81F1B0FBF1
:1006A000F1F002B080BD000080B582B00020019062
:1006B00040F28420C4F2000000680328009045D86E
:1006C0000099DFE801F002373B3F40F28020C4F29E
:1006D00000000068002804D1FFE700F0A1F80190B5
:1006E00027E040F28020C4F200000068012804D115
:1006F000FFE700F031F801901AE040F28020C4F2E8
:1007000000000068022804D1FFE700F097F801908C
:100710000DE040F28020C4F200000068032804D1FC
:10072000FFE700F099F8019000E0FFE7FFE7FFE73F
:10073000FFE70EE000F012F901900AE000F014F972
:10074000019006E000F0D6F8019002E00020019050
:10075000FFE7019802B080BD81B043F22000C4F2EF
:1007600001000068C001002807D5FFE740F20C0037
:10077000C2F200000068009002E000200090FFE755
:10078000009801B07047000080B584B001468DF834
:100790000F009DF80F0002460928019239D80199EF
:1007A000DFE801F0050917231B1F272B2F33FFF765
:1007B0007BFF029030E0FFF777FF40F28031C4F218
:1007C00000010968012252FA81F1B0FBF1F00290B8
:1007D00022E0FFF71DFF02901EE000F0C5F8029036
:1007E0001AE000F04DF8029016E000F035F80290A3
:1007F00012E000F015F802900EE0FFF7ADFF029056
:100800000AE000F0ABF8029006E000F033F8029046
:1008100002E000200290FFE7029804B080BD0000D3
:1008200043F21000C4F20100006800F48040002888
:100830001CBF41F60030C0F2B700704740F61820E8
:10084000C4F20000006800F0400000281CBF44F221
:100850004020C0F20F00704743F21000C4F20100C4
:10086000006800F0804000281CBF4DF60000C0F278
:10087000B850704740F6A840C2F2000000687047C8
:1008800080B582B00020019040F2E020C4F2000068
:1008900000680028009008D0FFE70098012808D0E1
:1008A000FFE70098072808D00AE0FFF7D5FF01907E
:1008B00012E000F053F801900EE0002001900BE0F0
:1008C00041F68010C0F2000041F66911C0F200014B
:1008D00040F2392200F0DCFC019840F2AC31C4F265
:1008E00000010968012252FA81F1B0FBF1F002B077
:1008F00080BD000082B0B820C4F20200006840064B
:1009000000280CD4FFE79820C4F202000068C0075A
:10091000002804D1FFE74FF4004001901AE0B8200E
:10092000C4F202000068002100060028009108D4EB
:10093000FFE79820C4F20200006800F00100009078
:10094000FFE7009800F00100002818BF4FF40040B6
:100950000190FFE7019802B07047000040F6AC40FC
:10096000C2F200000068704740F6B040C2F20000DA
:100970000068704784B0134684468DF80F000291DA
:100980008DF8072040F20030C4F2000000909DF87E
:100990000700C007002808D0FFE700989DF80F1057
:1009A0004FF0005240F82120FFE70298002808D1BC
:1009B000FFE700989DF80F104FF0804240F821208B
:1009C00007E00298013800999DF80F2041F82200B5
:1009D000FFE704B07047000082B0019001984DF627
:1009E000C001C0F2A701884203D8FFE700200090B1
:1009F00086E001984BF28011C0F24F11884203D873
:100A0000FFE7012000907AE0019848F64021C0F20B
:100A1000F711884203D8FFE7022000906EE00198AA
:100A200046F20031C0F29F21884203D8FFE703203D
:100A3000009062E0019843F6C031C0F2473188422D
:100A400003D8FFE70420009056E0019841F280416E
:100A5000C0F2EF31884203D8FFE7052000904AE05A
:100A600001984EF64051C0F29641884203D8FFE704
:100A7000062000903EE001984CF20061C0F23E5129
:100A8000884203D8FFE70720009032E001984EF239
:100A90000011C0F2F551884203D8FFE7082000900A
:100AA00026E001984CF2C021C0F2DA61884203D8F6
:100AB000FFE7092000901AE001984AF28041C0F255
:100AC000BF71884203D8FFE70A2000900EE001982A
:100AD0004DF28011C0F6F001884203D8FFE70B20E9
:100AE000009002E00C200090FFE7FFE7FFE7FFE740
:100AF000FFE7FFE7FFE7FFE7FFE7FFE7FFE7FFE7C6
:100B000044F6E870C4F203001F21016044F2800043
:100B1000C4F203000168009A62F30301016044F229
:100B20000000C4F2030002210160FFE744F6E07018
:100B3000C4F2030000684007002801D4FFE7F5E78E
:100B400040F20040C4F200000168009A62F30F31E5
:100B5000016002B07047000080B582B0009000983C
:100B600041F60031C0F2B701884213D0FFE7009888
:100B700046F60041C0F2DC2188420BD0FFE7009826
:100B80004DF60001C0F2B851884203D0FFE70120C2
:100B900001902BE040F24810C4F200004FF00061D9
:100BA000016040F22820C4F200000160202000F023
:100BB00011FB00984DF60001C0F2B851884209D1EE
:100BC000FFE743F21000C4F20100016841F08041E8
:100BD000016008E043F21000C4F20100016841F432
:100BE00080410160FFE700200190FFE7019802B01B
:100BF00080BD000080B588B00690059104920393F3
:100C000040F6B440C2F200000068022819D1FFE7A4
:100C100040F6A440C2F2000044F23B11C1F20031A0
:100C2000016000680699059A049BDDF80CC00290EB
:100C3000084611461A466346DDF808C0E0470790AB
:100C400028E041F20010C1F200300068002801D015
:100C5000FFE70AE041F63C10C0F2000041F65411F3
:100C6000C0F20001B52200F013FB41F20010C1F206
:100C70000030006880680699059A049BDDF80CC076
:100C80000190084611461A466346DDF804C0E04765
:100C90000790FFE7079808B080BD000080B582B0DC
:100CA000019041F20010C1F200300068002801D02C
:100CB000FFE70AE041F63C10C0F2000041F6541193
:100CC000C0F20001A52200F0E3FA019860218162E0
:100CD00041F2F600C1F20030007840F6B441C2F2B1
:100CE0000001086041F20010C1F200300068406865
:100CF0000199009008460099884702B080BD000025
:100D000080B588B0069005910492039340F6B440F4
:100D1000C2F200000068022819D1FFE740F6A440A3
:100D2000C2F2000044F29D11C1F20031016000687E
:100D30000699059A049BDDF80CC0029008461146FE
:100D40001A466346DDF808C0E047079028E041F204
:100D50000010C1F200300068002801D0FFE70AE06F
:100D600041F63C10C0F2000041F65411C0F20001FF
:100D7000C42200F08DFA41F20010C1F20030006888
:100D8000C0680699059A049BDDF80CC001900846DE
:100D900011461A466346DDF804C0E0470790FFE7B6
:100DA000079808B080BD000080B58EB00C900B9104
:100DB0000A920993012008900C990B9A099B0190C3
:100DC000084611461A46019B00F0CCFA0890089894
:100DD000002803D0FFE708980D903EE0FFE7099850
:100DE000002837D0FFE70B9820F00F0003900C98F5
:100DF000039904AA00F034F808900898002801D05C
:100E0000FFE727E000200290FFE702980F2820D894
:100E1000FFE703980B99884213D1FFE70998002850
:100E20000FD0FFE7029804A9085C0A9908700A9895
:100E300001300A900B9801300B9009980138099005
:100E4000FFE7039801300390FFE70298013002901A
:100E5000DBE7C4E708980D90FFE70D980EB080BD62
:100E600080B588B00690059104920120039010206F
:100E700002900498002803D1FFE70420079056E071
:100E800006980599029A102300F06CFA03900398D3
:100E9000002803D0FFE70398079048E044F6E87085
:100EA000C4F203000F2101600598000944F210010B
:100EB000C4F203010860069890F82C0000F00101CC
:100EC0008900C0F3410241EA8221C0F3C00041EA37
:100ED000C03044F28001C4F20301086044F2000013
:100EE000C4F2030003210160069800F083FA039026
:100EF0000398002818D1FFE700200190FFE7019830
:100F0000032810D8FFE7019844F28001C4F20301DE
:100F100051F8200004990A1D04920860FFE7019827
:100F200001300190EBE7FFE703980790FFE7079890
:100F300008B080BD82B000900098002803D1FFE780
:100F40000420019013E044F28000C4F20300016821
:100F5000009A92F8382062F30301016044F2000025
:100F6000C4F203000221016000200190FFE7019814
:100F700002B0704782B000900098002803D1FFE7CC
:100F80000420019018E0009890F8301090F831009B
:100F900000F0030001F0030140EA810044F2800107
:100FA000C4F20301086044F20000C4F203000E2101
:100FB000016000200190FFE7019802B07047000037
:100FC00080B58AB00020ADF8260040F25420C2F26D
:100FD00000004FF408214FF4007208900846089969
:100FE00000F034FCBDF826104A1CADF82620089A03
:100FF00002EB810140F24023C2F200034FF0040CE7
:101000000790184662460693CDF814C0FFF718FA09
:10101000BDF826104A1CADF82620089A02EB810183
:10102000069B03F1040C04906046059AFFF708FA4A
:10103000BDF826104A1CADF82620089A02EB810163
:10104000069B03F1080C03906046059AFFF7F8F938
:10105000BDF826104A1CADF82620089A02EB810143
:10106000069B03F10C0C02906046059AFFF7E8F925
:10107000BDF826104A1CADF82620089A02EB810123
:10108000069B03F1100C01906046059AFFF7D8F912
:101090000AB080BD80B58EB00020ADF8360040F2B9
:1010A0005420C2F200004FF408214FF400720C905B
:1010B00008460C9B0B9119460A9200F0C7FBBDF83D
:1010C00036104A1CADF836200C9A02EB810140F232
:1010D0004023C2F200034FF0040C09900846194661
:1010E00062460893CDF81CC0FFF7AAF9BDF8361088
:1010F0004A1CADF836200C9A02EB8101089B03F1E3
:10110000040C069008466146079AFFF799F9BDF866
:1011100036104A1CADF836200C9A02EB8101089B70
:1011200003F1080C059008466146079AFFF788F915
:10113000BDF836104A1CADF836200C9A02EB81013E
:10114000089B03F10C0C049008466146079AFFF7D0
:1011500077F9BDF836104A1CADF836200C9A02EB30
:101160008101089B03F1100C039008466146079A21
:10117000FFF766F90B99029008460A9900F01CFBEC
:101180000B99019008460C990A9A00F077FB0EB073
:1011900080BD000080B583B094468E4602908DF8E5
:1011A00007108DF806200093009802999DF80720FB
:1011B00001EBC2119DF8062041F8220003B080BD6A
:1011C00081B000900098C821C4F20201086001B00B
:1011D0007047000081B000900098C821C4F202015D
:1011E000086001B07047000080B50F49884207D8F9
:1011F000002000F04FF90020BDE8804000F0D8B991
:101200000A49884207D8012000F044F90120BDE8CE
:10121000804000F0CDB9022000F03CF90220BDE88A
:10122000804000F0C5B900BF00E1F50580A4BF070C
:1012300080B54EF68850CEF20000016841F470018E
:101240000160016841F00F0101604EF68C50CEF252
:101250000000016840F603421143016040F20000C3
:10126000C0F200004EF60851CEF20001086040F2D4
:101270000830C4F200000021016040F22020C4F2D6
:1012800000007821016000F001F880BD7047000087
:101290008EB00D900C910B9241F68610C0F20000BA
:1012A00040F20401C2F20001069100F02EFB0D99FC
:1012B00005900846069900F028FB41F69D11C0F202
:1012C000000104900846069900F01FFB0C9903905A
:1012D0000846069900F019FB41F6A511C0F200017D
:1012E00002900846069900F010FB08A90C310791FE
:1012F00007994A1E0792002201F8012C07994A1EFD
:1013000007920A2201F8012CFFE70B9801281CDB49
:10131000FFE70B9846F26761C6F2666150FB01F287
:10132000930803EBD27202EB8202A0EB4200303052
:10133000079A531E079302F8010C0B9850FB01F01B
:10134000811001EBD0700B90DFE7079840F20401A9
:10135000C2F2000100F0D9FA019000F001F800009B
:10136000FFE7FEE785B00390029101920093039896
:10137000002803D1FFE70420049037E00298009989
:101380000139084206D1FFE7019800990139084266
:1013900003D0FFE76520049028E0029803990968CC
:1013A00088420DD3FFE702980199084403990A681F
:1013B00049681144884203D8FFE70020049015E0F3
:1013C00002980399496988420DD3FFE70298019971
:1013D000084403994A6989691144884203D8FFE7A0
:1013E0000020049002E066200490FFE7049805B016
:1013F0007047000083B0029001200190FFE744F69F
:10140000E070C4F2030000684007002801D4FFE741
:10141000F5E744F6E070C4F20300006800909DF820
:101420000000C007002803D0FFE76920019016E004
:101430009DF800008007002803D5FFE76F2001908A
:101440000CE09DF800000007002803D5FFE774209A
:10145000019002E000200190FFE7FFE7FFE701981D
:1014600003B0704780B584B002900191019840F2BA
:101470000001C2F20001884205D1FFE7029800F0A6
:101480002FFA039003E04FF0FF300390FFE703983B
:1014900004B080BD022806D0012808D090B90C48BD
:1014A0008168C06806E00A480168406802E00848B0
:1014B00001694069CA0708BF704749083B4A116083
:1014C00050607047394803490160034941607047E3
:1014D000D8FC0900684E0C01983A800180B5B0F53F
:1014E000747F05D24FF4003C4FF4884E0C224BE041
:1014F000B0F57A7F05D84FF4802C4FF4984E0E2229
:1015000042E040F20241884205D24FF4C02C4FF431
:10151000B04E112238E040F21B41884205D24FF410
:10152000002C4FF4C84E14222EE040F23441884281
:1015300005D24FF4202C4FF4D84E162224E040F26E
:101540004D41884205D24FF4402C4FF4E84E18220A
:101550001AE040F26641884205D24FF4602C4FF405
:10156000F04E1B2210E040F27F41884202D24FF43D
:10157000801C06E04FF4A01CB0F5936F38BF4FF409
:10158000901C4FF4F84E1E22084BD96847F61F40B6
:1015900021EA00004EEA02010843D860186820F4EE
:1015A000F01040EA0C00186080BD00BF100002403F
:1015B00022490A68D1F810C05308D10704BF47F682
:1015C000A063C0F226134FEA5C015FEACC7204BF4D
:1015D00047F6A061C0F22611994288BF1946184A01
:1015E000914207D202281CD001280ED040F233408D
:1015F000FFF774BF134A91420BD2022805D001288D
:1016000013D140F24C40FFF769BF40F27E40FFF734
:1016100065BF02280DD0012807D140F20140FFF735
:101620005DBF4FF49660FFF759BF4FF47A70FFF734
:1016300055BF40F21A40FFF751BF00BF30FD09000F
:10164000A1DF0101A11D4B0180B598B0FEF754FF49
:10165000FEF71CFF00F0D8F808A905900846FFF730
:101660001DFB0490FFF7ACFC40F24020C2F20000EA
:101670000068012815D1FFE740F24020C2F20000C7
:1016800082684FF480314FF4603303900846194666
:1016900000F03EF80021039A11600290FFF7FAFC77
:1016A000FFE740F24020C2F200004068012815D157
:1016B000FFE740F24020C2F20000C2684FF4004150
:1016C0004FF4403301900846194600F021F80021FC
:1016D000019A51600090FFF7DDFCFFE74EF60850DD
:1016E000CEF200004FF4803101600868179017981F
:1016F00080F308880420C0F20100006840F2002155
:10170000C2F20001086062B608688047FFE7FEE7A2
:1017100080B586B005900491039200200290FFE707
:1017200002980399B0EB512F20D2FFE700200190DF
:101730000598029900EB41204FF40071009100F0F0
:101740003BF80199084301900598029900EB41206C
:10175000049A02EB4121009A00F090F801990843A5
:101760000190FFE7029801300290D9E7BDF80C0024
:10177000C00500281DD0FFE70020019005980299C0
:1017800000EB41204FF4007100F016F80199084376
:1017900001900598029900EB4120049A02EB412147
:1017A000039A6FF35F2200F069F8019908430190F2
:1017B000FFE7019806B080BD80B586B00490039124
:1017C000049803990844B0F51D2F03D9FFE70120C1
:1017D000059016E040F20420C2F200000190FFF7ED
:1017E000C9FB0499039A46F26C63C6F66533DDF8CB
:1017F00004C000906046FFF7FDF902900298059042
:10180000FFE7059806B080BD80B582B00020FEF7E6
:10181000BBFF4DF68361C4F21B31A0FB0101890CB3
:1018200040F20422C2F20002916200901046FFF7DB
:1018300035FA002803D1FFE70020019002E00120E3
:101840000190FFE7019802B080BD000080B586B02E
:1018500005900491039240F20420C2F2000002902D
:10186000FFF768FB0599049A039BDDF808C0019017
:101870006046FFF799FA06B080BD000080B588B0D9
:101880000690059104920599049A40F20060C2F214
:101890000000FEF7D5FD0699049A1144B1F51D2FFD
:1018A00003D9FFE70120079017E040F20420C2F2BD
:1018B00000000290FFF75EFB069940F20062C2F260
:1018C00000024FF40073DDF808C001906046FFF796
:1018D00017FA039003980790FFE7079808B080BDB8
:1018E00081B0009000BE009801B0704702E008C8C7
:1018F000121F08C1002AFAD170477047002001E08A
:1019000001C1121F002AFBD1704770B50D46044675
:1019100002E02946FFF7A6FD14F8010B0028F8D1D4
:1019200070BD00000100010140000000000800201F
:10193000000C0020800C002000000000564552538F
:10194000494F4E315F464C4153485F4150495F54C7
:10195000524545002E2E2F647269766572732F668C
:10196000736C5F6961702E63002E2E2F647269762E
:101970006572732F66736C5F636C6F636B2E6300AD
:1019800066616C7365002A2A2A206173736572741C
:10199000696F6E206661696C65643A20002C206670
:1019A000696C6520002C206C696E652000000000C9
:1019B000001A00000000002000020000EC180000E7
:1019C000001C000000020020B80A0000FC18000003
:1019D0000000000000000000000000000000000007
:1019E00000000000000000000000000000000000F7
:1019F00000000000000000000000000000000000E7
:101A00000000000000000000001BB7000024F400EC
:101A100000000000000000000000000000000000C6
:101A200000000000000000000000000000000000B6
:101A300000000000000000000000000000000000A6
:101A40000000000000000000000000000000000096
:101A50000000000000000000000000000000000086
:101A60000000000000000000000000000000000076
:101A70000000000000000000000000000000000066
:101A80000000000000000000000000000000000056
:101A90000000000000000000000000000000000046
:101AA0000000000000000000000000000000000036
:101AB0000000000000000000000000000000000026
:101AC0000000000000000000000000000000000016
:101AD0000000000000000000000000000000000006
:101AE00000000000000000000000000000000000F6
:101AF00000000000000000000000000000000000E6
:101B000000000000000000000000000000000000D5
:101B100000000000000000000000000000000000C5
:101B200000000000000000000000000000000000B5
:101B300000000000000000000000000000000000A5
:101B40000000000000000000000000000000000095
:101B50000000000000000000000000000000000085
:101B60000000000000000000000000000000000075
:101B70000000000000000000000000000000000065
:101B80000000000000000000000000000000000055
:101B90000000000000000000000000000000000045
:101BA0000000000000000000000000000000000035
:101BB0000000000000000000000000000000000025
:101BC0000000000000000000000000000000000015
:101BD0000000000000000000000000000000000005
:101BE00000000000000000000000000000000000F5
:101BF00000000000000000000000000000000000E5
:0400000500000201F4
:00000001FF
