:020000040000FA
:108000000040042015320320393203203D32032082
:108010003532032035320320353203203532032038
:1080200000000000000000000000000041320320BA
:10803000353203200000000045320320493203207E
:108040004D32032051320320553203205932032090
:108050005D32032061320320653203206932032040
:108060006D320320713203207532032079320320F0
:108070007D320320813203208532032089320320A0
:108080008D32032091320320953203209932032050
:108090009D320320A1320320A5320320A932032000
:1080A000AD320320B1320320B5320320B9320320B0
:1080B000BD320320C1320320C532032041370320E3
:1080C000CD320320D1320320D5320320D932032010
:1080D000DD320320E1320320E5320320E9320320C0
:1080E000ED320320F1320320F5320320F932032070
:1080F000FD3203200133032005330320093303201D
:108100000D330320113303201533032019330320CB
:108110001D3303202133032025330320293303207B
:108120002D3303203133032035330320393303202B
:10813000000000000000000000000000000000003F
:10814000000000000000000000000000000000002F
:10815000000000000000000000000000000000001F
:10816000000000000000000000000000000000000F
:1081700000000000000000000000000000000000FF
:1081800000000000000000000000000000000000EF
:1081900000000000000000000000000000000000DF
:1081A00000000000000000000000000000000000CF
:1081B00000000000000000000000000000000000BF
:1081C00000000000000000000000000000000000AF
:1081D000000000000000000000000000000000009F
:1081E000000000000000000000000000000000008F
:1081F000000000000000000000000000000000007F
:10820000DFF80CD000F01CF9004800479539032036
:108210000040042072B6044880F30A88034880476F
:1082200062B60348004700BF003C042035380320F5
:1082300001320320FFF7FEBF404800474048004797
:1082400040480047404800474048004740480047F2
:1082500040480047404800474048004740480047E2
:1082600040480047404800474048004740480047D2
:1082700040480047404800474048004740480047C2
:1082800040480047404800474048004740480047B2
:1082900040480047404800474048004740480047A2
:1082A0004048004740480047404800474048004792
:1082B0004048004740480047404800474048004782
:1082C0004048004740480047404800474048004772
:1082D0004048004740480047404800474048004762
:1082E0004048004740480047404800474048004752
:1082F0004048004740480047404800474048004742
:108300004048004740480047404800474048004731
:108310004048004740480047404800474048004721
:108320004048004740480047404800474048004711
:108330004048004740480047404800473932032042
:108340003D320320413203204532032049320320CD
:1083500035320320353203203532032035320320F5
:1083600035320320353203203532032035320320E5
:108370003532032035320320DD340320E534032079
:1083800035320320F5340320353203203532032003
:1083900035320320353203203532032035320320B5
:1083A00035320320353203203532032035320320A5
:1083B0003532032035320320353203203532032095
:1083C0003532032035320320353203203532032085
:1083D0003532032035320320353203203532032075
:1083E000ED340320FD3403203532032035320320E1
:1083F0003532032035320320353203203532032055
:108400003532032035320320353203203532032044
:108410003532032035320320353203203532032034
:108420003532032035320320353203203532032024
:108430003532032035320320353203203532032014
:10844000064C074D06E0E06840F0010394E80700A1
:1084500098471034AC42F6D3FFF7D6FEB43A032067
:10846000D43A032080B50B2000F020F80D2000F056
:108470001DF846F20000C4F2000000214FF08062B7
:1084800000F048F941F20400C4F20000016840F233
:108490002312114321F01C01016080BD40F2202015
:1084A000C4F200004FF0806101607047010AC0B261
:1084B000012202FA00F040F22022C4F2000242F847
:1084C00021007047010AC0B2012202FA00F040F216
:1084D0002022C4F2000242F821007047002000F080
:1084E00013B80000012000F00FB80000022000F0D7
:1084F0000BB80000032000F007B80000042000F0D3
:1085000003B8000001607047F0B581B0044643F63F
:108510004420C2F2030050F82460304600F056F8C0
:10852000054630462946FFF7EDFF4FF64000C2F200
:108530000300005DB0B140F624570026C2F20407E4
:1085400003E000BF0136072E19D025FA06F0C00758
:10855000F8D057F8240050F8261000291CBF2846F0
:108560008847EFE740F62450C2F2040050F8240098
:10857000016821B1284601B0BDE8F040084701B0CC
:10858000F0BD000043F6442201460020C2F203027F
:1085900052F820308B4208BF704701300528F7D1D0
:1085A00043F6762102A0C2F203014D2200F07AF9CF
:1085B000696E7374616E6365203C206374696D65D8
:1085C000724172726179436F756E74000068704712
:1085D00049F20800C4F2000000687047B0B5E9B184
:1085E0000C460546FFF7CEFF43F65821C2F20301C1
:1085F00031F81000FFF766FF2846FFF7C3FF0DA113
:1086000051F8200000F0ECF82078617800F00300C9
:1086100061F3830028676068E860B0BD43F66720B7
:1086200043F67621C2F20300C2F203015C2200F09D
:1086300039F900BF1A0001001B00010016000100FB
:108640001500020016000200B0B514460D46FFF7F3
:1086500099FF40F62451C2F2040141F820504FF630
:108660004001C2F203010C54B0BD000049F2040005
:10867000C4F20000016841F002010160016821F0CC
:1086800002010160704700002DE9F047876A9946B2
:10869000924604460D46FFF775FF05EB45068046FA
:1086A0000720B04027EA00000AFA06F140EA010775
:1086B000102000FA05F12046FFF724FFB9F1000F62
:1086C0000BD0042000FA06F143F66220C2F2030048
:1086D00010F908000F4300F017F8A762BDE8F08713
:1086E00049F20400C4F20000016841F00101016098
:1086F0007047000049F20400C4F20000016821F054
:10870000010101607047000010F1800118BF00F006
:10871000B9B8704700EB8100130D6FF31F52C250C0
:10872000704700004BF20800C4F208004FF0FF3120
:10873000016070474BF20000C4F208000068704707
:1087400010B5FFF7F7FF4FF64804C2F203042060AC
:10875000FFF7E8FF206802280AD0012818BF10BDE3
:1087600000206060FFF782FFBDE81040FFF7B8BF50
:10877000BDE81040FFF7BEBF80B5FFF78FFE1A209F
:10878000BDE8804000F02CB84FF648004BF21001D5
:10879000C2F20300C4F208010860704781B22029C8
:1087A00012D240F20012000CC4F200024FF0010C91
:1087B00002EB80030CFA01F1196400BF52F820307B
:1087C0000B409942FAD0704743F6A52043F68E211C
:1087D000C2F20300C2F20301492200F063F8000074
:1087E00010B5044600F006F82046BDE81040FFF73B
:1087F000D5BF000081B2202911D240F20012000C36
:10880000C4F200024FF0010C02EB80030CFA01F1FC
:10881000196200BF52F820300B42FBD0704743F67C
:10882000A52043F68E21C2F20300C2F203013022DA
:1088300000F038F84EF68850CEF20000016840F69D
:10884000034241F00F01016041681143416043F26E
:108850000001C2F2030140F8801C40F22020C4F263
:1088600000000021C0F8E81078210160AFF300801B
:10887000704700004EF20010CEF200004FF00041B1
:1088800001607047002848BF704700F01F010122B7
:1088900002FA01F14EF200124009CEF2000242F853
:1088A0002010704784B04FF60407C2F203070D464C
:1088B00006461BA03946144600F0ABF83046394650
:1088C00000F0A7F81CA0394600F0A3F82846394666
:1088D00000F09FF81AA0394600F09BF801A80A3072
:1088E0000A21012CADF80E1012DB4CF6CD41CCF66E
:1088F000CC4100BFA4FB0123DA0802EB8203092C60
:10890000A4EB4303144643F0300300F8013DF1D8D3
:108910004FF60401C2F2030100F07BF800F014F8F6
:108920002A2A2A20617373657274696F6E206661EA
:10893000696C65643A2000002C2066696C65200033
:108940002C206C696E652000FEE7000010B54FF624
:108950004804C2F2030460680021B1EB902F18BFF5
:1089600010BDFFF735FE61684A1C04EB81016260AF
:108970008860BDE81040FFF779BE00004FF60002A6
:10898000C2F20302914214BF4FF0FF3000F030B842
:108990007047000082B0FFF765FD0F2049F2000428
:1089A00001900020C4F20004ADF8000069462046A2
:1089B000FFF714FE4FF60801C2F203012046002221
:1089C000FFF742FE2046002103220123FFF75CFE51
:1089D000FFF7D2FEFFF74EFF4FF64800C2F203004A
:1089E0004FF0FF310160FFF7CFFE00BF30BFFDE762
:1089F00000BE704702E008C8121F08C1002AFAD161
:108A000070477047002001E001C1121F002AFBD10E
:108A1000704770B50D46044602E02946FFF7AEFFE9
:108A200014F8010B0028F8D170BD0000010001010D
:108A30004000000080080420800C0420000D042069
:108A400000000000008000400090004000800240D4
:108A50000090024000A002401A011B0116011502FD
:108A600016020A0B240D25636F6E66696720213D8F
:108A7000204E554C4C002E2E2F6472697665727311
:108A80002F66736C5F6374696D65722E63002E2EA2
:108A90002F647269766572732F66736C5F7265738B
:108AA00065742E6300626974506F73203C2033320A
:108AB00075000000003B032000F803204000000088
:108AC000F4390320403B032040F80320F814000051
:108AD000043A032000000000000000000000000035
:108AE0000000000000000000000000000000000086
:108AF0000000000000000000000000000000000076
:108B000000000000000000004D39032000000000BC
:108B10000000000000000000000000000000000055
:108B20000000000000000000000000000000000045
:108B30000000000000000000000000000000000035
:048B4000400B0000E6
:020000040001F9
:100000000030032015020100390201003D02010009
:100010003502010035020100350201003502010000
:10002000000000000000000000000000B16A0100B4
:100030003502010000000000D15E010039780100A6
:100040004D02010051020100550201005902010058
:100050005D02010061020100650201006902010008
:100060006D020100710201007502010079020100B8
:100070007D02010081020100850201008902010068
:10008000813701003D38010095020100990201000D
:100090009D020100A1020100A5020100A9020100C8
:1000A000AD020100B1020100B5020100B902010078
:1000B000B57C0100C1020100C502010039560100F2
:1000C000CD020100D1020100D5020100D9020100D8
:1000D000DD020100E1020100E5020100E902010088
:1000E000ED020100F1020100F5020100F902010038
:1000F000FD020100010301000503010009030100E5
:100100000D03010011030100150301001903010093
:100110001D03010021030100250301002903010043
:100120002D030100310301003503010039030100F3
:1001300000000000000000000000000000000000BF
:1001400000000000000000000000000000000000AF
:10015000000000000000000000000000000000009F
:10016000000000000000000000000000000000008F
:10017000000000000000000000000000000000007F
:10018000000000000000000000000000000000006F
:10019000000000000000000000000000000000005F
:1001A000000000000000000000000000000000004F
:1001B000000000000000000000000000000000003F
:1001C000000000000000000000000000000000002F
:1001D000000000000000000000000000000000001F
:1001E000000000000000000000000000000000000F
:1001F00000000000000000000000000000000000FF
:10020000DFF80CD000F0B0FF0048004795950100E2
:100210000030032072B6044880F30A880348804700
:1002200062B60348004700BF002003206578010044
:1002300001020100FFF7FEBF404800474048004769
:100240004048004740480047404800474048004772
:100250004048004740480047404800474048004762
:100260004048004740480047404800474048004752
:100270004048004740480047404800474048004742
:100280004048004740480047404800474048004732
:100290004048004740480047404800474048004722
:1002A0004048004740480047404800474048004712
:1002B0004048004740480047404800474048004702
:1002C00040480047404800474048004740480047F2
:1002D00040480047404800474048004740480047E2
:1002E00040480047404800474048004740480047D2
:1002F00040480047404800474048004740480047C2
:1003000040480047404800474048004740480047B1
:1003100040480047404800474048004740480047A1
:100320004048004740480047404800474048004791
:100330004048004740480047404800473902010014
:100340003D020100B16A0100D15E0100397801006F
:1003500035020100A5300100013F0100253F0100E9
:10036000CD580100055901003D59010075590100A2
:100370006184010035020100E12C01001D2D010006
:1003800035020100612D01007D360100F1360100CA
:1003900039370100F53701001D3A0100653A0100C7
:1003A000E93A0100613B010035020100350201001C
:1003B000350201003502010035020100350201005D
:1003C000350201003502010035020100350201004D
:1003D000AD590100E55901001D5A0100555A0100AF
:1003E000252D01007D2D010035020100350201009F
:1003F000350201003502010035020100350201001D
:10040000350201003502010035020100350201000C
:10041000350201003502010075630100AD63010082
:1004200035020100350201003502010035020100EC
:100430003502010035020100D1300100AD3B010061
:100440002DE9F05F0546002092469B468846064609
:10045000814640241BE0284641464746224600F09C
:1004600009FD53465A46C01A914110D31146184609
:10047000224600F0F0FC2D1A67EB01084F46224699
:100480000120002100F0E7FC17EB00094E41201E7F
:10049000A4F10104DFDC484631462A464346BDE864
:1004A000F09FA0F14101192900D82030704710B504
:1004B00040EA01040346A40703D009E010C9121F53
:1004C00010C3042AFAD203E011F8014B03F8014BE0
:1004D000521EF9D210BDD2B201E000F8012B491E24
:1004E000FBD270470022F6E710B513460A460446D1
:1004F0001946FFF7F0FF204610BD421E12F8013FDB
:10050000002BFBD111F8013B02F8013B002BF9D184
:10051000704730B505462A460B4612F8010B13F812
:10052000014B08B1A042F8D01CB1002802D06D1CCC
:10053000F1E7284630BD421C10F8011B0029FBD111
:10054000801A704710B5002200E0521C835C8C5C5E
:10055000A34201D1002BF8D1D8B2E1B2401A10BDAC
:1005600030B504460020034600E05B1C934203D2F2
:10057000E05CCD5C401BF8D030BD10B5044600E017
:10058000401C0378002BFBD100E0401C521E04D31A
:1005900011F8013B0370002BF7D1002101702046B8
:1005A00010BD034611F8012B00F8012B002AF9D1E8
:1005B0001846704730B505460020034600E05B1C36
:1005C000934205D2EC5CC85C201A01D1002CF6D114
:1005D00030BD00000FB400B58DB010A909900B908C
:1005E00000914FF0FF300A9000200C9005480690D3
:1005F000054807906A4609A80F9900F063FC0DB002
:100600005DF814FBE10E0100FF0E01002DE9FF4F24
:10061000087883B09946FF2805D0491C2D2804D0BE
:100620000024002008E000200BE00124F9E700EBA3
:10063000800003EB4000491C0B78FF2BF7D104B17D
:10064000404200230293147819461D462D2C01D0F8
:100650002B2C04D1521C2D2C13D000240294AA461A
:100660001478FF2C0FD00A25A3FB057801FB058128
:100670004FF0000C03FB0C11521CE3194AEB010173
:10068000EEE70124EAE7814453EA010002D019F5BC
:10069000C87F06DA03980021C0E9001107B0BDE861
:1006A000F08F0025AE4E2F46DFF8B882184600F0D6
:1006B0001FFDCDE90001B9F1000002DAC9F1000423
:1006C00000E004460023A74A1AEB030B42EB045A4E
:1006D00012E0E00707D02A4633463846414600F08C
:1006E000ECF9074688462A4633461046194600F07C
:1006F000E4F905460E466410002CEAD1DDE900015C
:10070000B9F1000F5A46534606DA00F048FA3A4665
:10071000434600F044FA05E000F0CFF93A4643467C
:1007200000F0CBF9029A0AB181F00041039AC2E9C4
:100730000001B3E72DE9FF4F1F468DB0D7E9014611
:100740004FF0FF382E2045464FF000090B90B96955
:100750006D1C0E988847396A824688470028F6D172
:10076000BAF1FF3F0AD024F4D064002E11DDBAF1B3
:100770002B0F08D0BAF12D0F0BD102E0404611B07B
:100780008DE744F48064B9696D1C0E9888478246F1
:10079000761E6946600501D52D2000E02B208DF8DE
:1007A000000001F1010B0DF1200809E0B9696D1C91
:1007B0000E98884782460F9844F40074761E0560B0
:1007C000002E02DDBAF1300FF0D00B998A453ED1F0
:1007D00044F0800406E00F99681CA9F1010944F473
:1007E00000740860B9696D1C761E0E9888478246B1
:1007F0003028F0D02BE00B998A4505D1200603D490
:1008000044F08004761E18E050460BF0C5FD08B396
:100810000DF11302761EAAF1300044F400749345E2
:1008200006D20BF8010B200607D5A9F1010003E061
:10083000200602D409F101008146A00502D50F99D6
:10084000681C0860B9696D1C0E9888478246002EA6
:10085000D1DC53E0002E51DDBAF1650F02D0BAF1C0
:10086000450F4BD1A00549D5B9696D1C24F44074DE
:10087000761E0E9888478246002E0CDD2B2804D069
:10088000BAF12D0F07D144F48074B9696D1C0E982C
:1008900088478246761EE00501D52D2100E02B21F8
:1008A00008F8011BCDF82C8021E00DF12901761EFE
:1008B00044F4007488450CD2AAF1300010F0FF0017
:1008C00088F8000002D10B99884509D908F1010880
:1008D00006E0E00501D5244801E042F20F708146B0
:1008E000B9696D1C0E98884782460F980560002EE6
:1008F00004DD50460BF050FD0028D6D1F9690E9862
:100900008847FF208BF8000088F800000020069040
:1009100007904B466A4608A906A8FFF777FEA00590
:1009200002D46FF001002AE714F0240F0AD0E00788
:1009300014D1DDE906123868031D3B600068C0E988
:1009400000120BE0DDE9060100F053FA0146E00772
:1009500004D13868021D3A600068016028460EE73D
:10096000000014400000F03FF1D8FFFF2DE9FE4FDA
:10097000804681EA0300C00F0C46009021F0004140
:1009800023F00045B8EB0200A94105D240462146BC
:1009900090461C460B46024623F00040104347D0C9
:1009A000270DC7F30A00C3F30A510290401A0190C1
:1009B00040286BDAC3F3130040F4801B0098924682
:1009C00020B10023D2EB030A63EB0B0B01985946CD
:1009D000C0F14002504600F03EFA06460D46504631
:1009E0005946019A00F056FA10EB080061410024C4
:1009F00087EA115284EAE7731A4340D0009A62B33F
:100A0000019A012A4FEA075215DC001B61EB020133
:100A10004FF0004202EA0752CDE90042001C41F5C6
:100A2000801132462B4600F015FB03B0BDE8F08F75
:100A300040462146F9E7001B61EB0201001C41F52D
:100A4000801300185B412018A2F5001747EB030143
:100A500040EAD570B6196D4111E06D084FEA3606CF
:100A600045EAC0754FEA0752001B61EB0201001C0A
:100A700041F5801149084FEA3000001951413246D2
:100A80002B4603B0BDE8F04F00F0D5BA0098012224
:100A900040000023D0EB020263EBE0730098214694
:100AA0004FEAE074B8EB000061EB0401E9E783F082
:100AB00000435BE781F0004158E72DE9FE4F81EAF2
:100AC000030404F0004421F0004100944FF0000BB7
:100AD00023F0004350EA01045ED052EA03045BD0E5
:100AE000C3F30A54C1F30A552C44A4F2F33401941D
:100AF000A0FB0254C1F3130141F48011C3F31303AB
:100B000043F4801301FB024400FB034E840A970A5E
:100B100044EA815447EA8357A4FB076802958D0A8B
:100B200005FB07854FEA932C04FB0C542705029D17
:100B30004FEA065847EA1637B5EB08056EEB070C87
:100B4000870E920E47EA811742EA8312A7FB020141
:100B5000B6EB0B0164EB00042B0D43EA0C335E187B
:100B600044EB1C50DA465146E7FB0201C5F313047F
:100B70004FEA0B3343EA14534FEA0432019C43EA31
:100B80000603A4F10C040294009CCDE900B400F02B
:100B900061FA03B0BDE8F08F00200146F9E72DE9C6
:100BA000F04D81EA030404F0004B21F000451446A7
:100BB0004FF0000A23F0004150EA050220D054EA29
:100BC00001021DD0C5F30A570246C5F31303C1F352
:100BD0001300C1F30A5640F4801543F48013A7EBC9
:100BE0000608101BD64608F2FD3873EB050002D349
:100BF00008F1010801E092185B41B8F1000F03DA37
:100C000000200146BDE8F08D00204FF4801106461B
:100C100084460EE0171B73EB050705D3121B63EB2D
:100C2000050306434CEA010C49084FEA30009218CC
:100C30005B4150EA0107EDD152EA030012D082EA8B
:100C4000040083EA0501084305D0101BAB4106D21E
:100C50000122002306E000224FF0004302E06FF083
:100C6000010253101AEB06004CEB085110EB0A007E
:100C700041EB0B01BDE8F04D00F0DDB930B5041ECD
:100C800071F1000404DB4FF00044404264EB0101C9
:100C9000141E73F1000405DB1C464FF00043524262
:100CA00063EB0403801A994101D3012030BD002079
:100CB00030BD30B5041E71F1000404DB4FF0004478
:100CC000404264EB0101141E73F1000405DB1C4675
:100CD0004FF00043524263EB0403101A8B4101D3DF
:100CE000012030BD002030BD30B5041E71F100047C
:100CF00004DB4FF00044404264EB0101141E73F129
:100D0000000405DB1C464FF00043524263EB040332
:100D100042404B401A4301D0002030BD012030BD7D
:100D20000EB5C10F80EAE0700844CA07002140F206
:100D300033438DE80E000A460B4600F08BF903B0F2
:100D400000BD0EB540F2334102910021CDE9001102
:100D50000A460B4600F07EF903B000BD70B5C1F342
:100D60000A5201F000450024C1F3130140F2FF33A1
:100D700041F480119A4201DA002070BD40F2334301
:100D80009A42A2F2334203DC524200F073F800E0D0
:100D900090402C43F1D0404270BDC1F30A5210B5CF
:100DA000C1F3130140F2FF3341F480119A4201DA9A
:100DB000002010BD40F233439A42A2F2334203DCDA
:100DC000524200F057F810BD904010BD00F00042B4
:100DD00030F000400AD0C10D01F56071C0F316007B
:100DE00042EA0151C2084007114370470020014602
:100DF000704701F0004330B421F0004150EA010295
:100E000006D00A0DA2F56072C1F31301002A02DCBC
:100E100030BC00207047440F44EAC104C100E01810
:100E200030BC00EBC25000F0CFB830B50B460146E5
:100E300000202022012409E021FA02F59D4205D379
:100E400003FA02F5491B04FA02F52844151EA2F123
:100E50000102F1DC30BD202A04DB203A00FA02F165
:100E6000002070479140C2F1200320FA03F3194398
:100E700090407047202A04DB203A21FA02F000213A
:100E8000704721FA02F3D040C2F12002914008439A
:100E900019467047202A06DBCB17203A41FA02F0A8
:100EA00043EAE07306E041FA02F3D040C2F12002C7
:100EB0009140084319467047026811441378016055
:100EC00018467047D16004495161044911620021FC
:100ED0001161114600F068B9B90E010095110100C9
:100EE000426842B1016811F8013B23B1521EC0E9CA
:100EF0000012184670470121C160881E7047426881
:100F00005AB1C368016843B983688B4205D0491E52
:100F1000521CC0E90012002070474FF0FF307047AC
:100F20000FB40B0010B58AB00FA900910E994FF0C5
:100F30000004234ACC60214CCDE9064200D00423B2
:100F40006FF00042CDE901321E4A089202466B461C
:100F50000020FFF7EFFB0AB010BC5DF814FBF0B502
:100F600085B007464FF0FF300091CDE901011E46E4
:100F7000002015460C4604903B466A46314604A8BC
:100F8000FFF7CEFF04990346601825B109B1024668
:100F900000E022462A6000290ED0002B02DD0099D5
:100FA000814209D00094001BCDE901043B466A460A
:100FB000314604A8FFF7B4FF05B0F0BDE10E010013
:100FC000FF0E0100951101000029A8BF7047401CC9
:100FD000490008BF20F00100704710B4B0FA80FC4F
:100FE00000FA0CF050EA010404BF10BC704749B18C
:100FF000CCF1200421FA04F411FA0CF118BF0121FC
:1010000021430843A3EB0C01CB1D4FEA00614FEADB
:10101000102042BF002010BC704700EBC3501044AA
:101020000029A4BF10BC7047401C490008BF20F035
:10103000010010BC704710B5141E73F1000408DAEB
:10104000401C41F1000192185B411A4301D120F08C
:10105000010010BD2DE9F04D92469B4611B1B1FA49
:1010600081F202E0B0FA80F220329046FFF7F3FE00
:1010700004460F4640EA0A0041EA0B0153465A462D
:10108000084313D0114653EA010019D0C8F14002B9
:101090005046FFF7EFFE05460E465046594642467B
:1010A000FFF7D9FE084305D0012004E02046394669
:1010B000BDE8F08D0020054346EAE0762C43374337
:1010C0000A986305E40AA0EB08000022FD0A44EA3E
:1010D00047540A3002D500200146E9E701051019FE
:1010E0006941DDE9084500196941BDE8F04DA2E715
:1010F0000EB540F2334202920022CDE9002213469F
:10110000FFF7A8FF03B000BDC1F30A52C1F31301FA
:1011100040F2FF3341F480119A4202DA0020014686
:10112000704740F233439A42A2F2334202DC524209
:10113000FFF7A0BEFFF78FBE30B5041E71F10004AB
:1011400004DB4FF00044404264EB0101141E73F1D4
:10115000000405DB1C464FF00043524263EB0403DE
:10116000994208BF904230BD064C074D06E0E0684A
:1011700040F0010394E8070098471034AC42F6D3DE
:10118000FFF742F884D00100A4D001000048704766
:10119000CCCB010010B50446FFF7F8FF0068005DF6
:1011A00000F0010010BD00002DE9F34F8BB04FF0AF
:1011B000000801F10C000C464FF0010B46460DF102
:1011C000080A01906269012101989047051E2DD0FF
:1011D000252D2CD0216A8847C0B162690121019870
:1011E0009047216A88470028F7D1411E626901981B
:1011F000904700E0761CA1690B988847216A8847D0
:101200000028F7D1E1690B988847DBE7A1690B98C3
:1012100088470746A84201D1761CD3E7E1690B98BD
:1012200088477F1C02D1B8F1000F6FD046E100273C
:1012300062693D463946019890472A2804D162697F
:101240000121019890470125DFF88492626901210C
:1012500001989047A0F130010A290AD24F45E5DCF8
:1012600007EB870100EB4107303FDFD445F0100565
:10127000ECE7E90601D46FF000476C280AD04C284F
:1012800014D0682815D06A280DD074281CD07A286C
:101290001AD01DE062690121019890476C2802D0A4
:1012A00045F0040514E045F002050DE045F0200589
:1012B0000AE06269012101989047682802D045F050
:1012C000080505E045F40065626901210198904731
:1012D000C4E9015765283DD019DC58287AD00CDCC8
:1012E000452837D004DC252826D0412831D131E0EB
:1012F00046282FD047282CD12CE05B2877D06128B6
:1013000028D063287CD0642823D15AE0D0E06F280D
:1013100048D008DC66281DD067281BD0692821D05A
:101320006E2816D127E0702845D0732868D075281C
:1013300047D078280DD14DE0A1690B988847054624
:1013400025283FF469AFE1690B9888476D1C3FF48D
:101350006AAFB3E023466A466FF001000B99FFF7CE
:10136000E9F99EE045F040006060A80723464FF091
:10137000000236D43EE0E8077FF447AF2068011D45
:1013800021600068290501D506701BE7290701D5F2
:10139000068017E7A90703D5F117C0E9006111E737
:1013A00006600FE745F040006060A80723464FF055
:1013B000080216D41EE040F60E0125EA0100606026
:1013C00016E045F040006060A80723464FF00A028F
:1013D00007D40FE045F040006060A80708D5234619
:1013E00010226FF001000B99AFF3008059E007E085
:1013F000234610226FF001000B99AFF3008050E0FC
:101400004FF000094F464B46632802D05B2806D0B8
:1014100040E0E80601D40120A06001273AE06269BB
:101420000121019890475E2805D14FF001096269BA
:10143000494601989047216939B900210A46534627
:1014400043F82120491C0829FADBB0B3216969B9A6
:10145000C11700EBD16253110AEB830122F01F0286
:10146000821A01200B68904003430B6062690121DE
:10147000019890475D28E8D1B9F1000F09D000200C
:10148000514651F82020D24341F82020401C082822
:10149000F7DB02AB224600976FF001000B99AFF328
:1014A000008000280CDA401C08D1BBF1000F05D0E9
:1014B0004FF0FF300DB0BDE8F08FFFE74046F9E791
:1014C000E90701D108F1010806444FF0000B79E665
:1014D000CCCCCC0C82B000200721012202F092FD7E
:1014E00044F24024C0F20F04204609F0E9FC2046F3
:1014F00009F030FD00201921012202F083FD0120B6
:101500000A21002202F07EFD02F04CFD012803D1E9
:101510000A2009F09FFFF7E700F022FA10200021CF
:1015200004F09EFF1120002104F09AFF01200A21FF
:10153000012202F067FD00201921002202F062FD65
:1015400052A00AF093FD06F0B1F99FED568A41F2E0
:10155000AC7647F6CD3942F2D02A41F230250DF172
:101560000408C2F20206C8F2427940F24F1BC2F2EE
:10157000020AC2F2020520E0B0EE480A0020002272
:10158000002401EE104AB8EE411A55F8200080EE12
:10159000010A55F82210C6F8700186ED5B0AC6F8FC
:1015A000741106F0F7FF40F20C20C2F20000006850
:1015B0000021022200230AF0B9FA00204FF0FF3187
:1015C00042464FF0FF330AF0C9FB0128F5D19DF8E0
:1015D0000400C006F1D5D6F82002A0FB0912811A3A
:1015E00002EB510143F20042C2F2020212680B0AFE
:1015F000928803FB1B00A2FB0974171B04EB57071F
:1016000000284FEA172000FB1B224FF0010418BFEF
:1016100004EB1123110418BF04EB1720CAE91A03C5
:10162000D91CC6F82412DAF87C10184401300029BD
:10163000C6F81C02A0D0DAF87C40B0EE480A2F1F92
:1016400000230022002000BF05EB810197ED012A55
:1016500091ED001A05EB800130EE010A91ED003AA0
:1016600005EB8201B4EEC32A91ED003AF1EE10FAD7
:10167000B8BF18460437B4EEC32A2146F1EE10FA7B
:10168000C8BF1A460133A342DED37AE74144435F21
:101690004170705461736B2052756E6E696E670D88
:1016A0000A000000000000002DE9F04381B04DF673
:1016B0000009C0F2B8590C4632214A4601F0C6FB77
:1016C00042F2CC2742F2C825C2F20207C2F202055A
:1016D00048F200063A682B68C4F200064FF0000892
:1016E00030460021CDF8008001F006FC304601F0C4
:1016F00049FC204632214A4601F0A8FB3A682B6893
:1017000006F5003420460121CDF8008001F0F4FBFD
:10171000204601B0BDE8F04301F034BC10B548F2FA
:101720000004C4F20004204601F032FC04F500304D
:10173000BDE8104001F02CBC2DE9F04742F2D02565
:1017400041F2AC76C2F20205C2F20206AA6DD6F8E8
:1017500048315BA063A10AF089FC41F22C2AC2F255
:10176000000A0027504600214FF40042EF67C6F8F8
:101770002072FEF7B9FE01200A21002202F042FC8D
:1017800000201921012202F03DFC95F832000121D0
:10179000012818BFEF62A86D4FF00109B0F5004FA6
:1017A00084BF4FF40040A865D6F8480100EB8000E4
:1017B000C000E865102004F053FEE86D09F0CAFB94
:1017C0001120012104F04CFED6F848014AF6C971F7
:1017D00088424FF000024AF6C871B8BF01220924BE
:1017E0008842C8BF082400200721002702F00AFC15
:1017F000D6F84801A04009F063FBD6F84801E96D2E
:10180000A040FFF751FF012009F024FE06F054F834
:10181000E86F41F23028C2F20208411C08EB800058
:1018200040F20024C2F2000480ED000AE96785F866
:10183000809000BF02F0B6FB0128FBD000F090F8CA
:101840000137652F2060F5D109F006FCEFF3108019
:1018500072B600BF02F0A6FB0028FBD002F0A2FB8C
:101860000128FBD000F07CF800EE100AB8EE400A28
:10187000D6F82012A86D4A1C0AEB81018242C6F8F4
:10188000202281ED000AE9D3C6F8200262B609F0F1
:10189000E7FBA86D30B943F20040C2F202000068D5
:1018A0000021818006F008F8E86F08EB8001013024
:1018B000E86781ED000ABDE8F04700F01BB800BF03
:1018C00025733A73616D704E756D6265723D256466
:1018D0002C53616D706C65526174653D25642C0DEF
:1018E0000A0000004144435F53616D706C6553749E
:1018F0006172740080B515A00AF0B8FB42F2D020E6
:10190000C2F20200002180F880101020002104F0B3
:10191000A7FD1120002104F0A3FDFFF7FFFE012029
:101920000A21012202F06EFB00201921002202F0A0
:1019300069FB40F20420C2F200000068102101227D
:101940000023BDE880400AF0F1B800BF4144435F86
:1019500053616D706C6553746F70200D0A00000048
:1019600080B546F2000040F23801C4F20800C2F22D
:10197000000104F085FD43F20440C2F20200427807
:1019800001781202807842EA0141084480BD0000DB
:10199000C02003F0EDFD012003F006FE302003F02F
:1019A00013FE002003F0F2FD03F06CFD47F6E0713A
:1019B00042F2D02AC2F2020A8842CAF850000FD37B
:1019C00000B24FF0FF3188420ADD4CF6E8416AA0D0
:1019D000C0F201010AF04AFBBAF8500003F0AEFD74
:1019E0006AA00AF043FB9FED5E0B9FED5F1B59EC75
:1019F000108B9FED5F0B57EC116B55EC104B0FE00C
:101A000008208AF8330002F005FBDAF84C0064285D
:101A100004BF6320CAF84C004FF4FA6009F01AFDC5
:101A200005F04AFFBDEEC00A43F2144110EE100A61
:101A3000C2F20201088003F029FDFFF782F9424655
:101A40004B46FFF7ACF8FFF7D4F9CAF83C0003F0B7
:101A500019FD47F6E1718842CAF850001AD300B266
:101A60004FF0FF31884215DD0120002102F0A0FA7D
:101A700040B90020112102F09BFA012802D14FF455
:101A8000004001E047F6E070CAF8500003F056FD50
:101A900002F0D0F9DAE9140BFFF753F932463B466E
:101AA000FFF70BF822462B46FFF779F8FFF775F999
:101AB0008345CAF84C0018BF02F0BCF90120002190
:101AC00002F076FA28B90020112102F071FA0128FB
:101AD00096D00120002102F06BFA012804D10020E9
:101AE000112102F065FA88B3DAF84C009AF8311047
:101AF000884213D9142825D84CF6E84131A0C0F209
:101B000001010AF0B3FADAF84C0000284FF009009E
:101B10008AF833007FF480AF10E000BF4CF6E84154
:101B200020A0C0F201010AF0A1FADAF84C00002866
:101B30004FF00A008AF833007FF46EAF0120CAF834
:101B40004C0069E70B208AF8330065E707208AF824
:101B500033004FF0FF3080B203F0F0FC5CE700BFD1
:101B60000000000000408F400000000000005940CD
:101B700000000000E0FFEF4025733A204C54433250
:101B80003934325F53657441430D0A004241545F5A
:101B90004170705461736B2052756E6E696E670D83
:101BA0000A00000025733A2050657263656E742048
:101BB0003C3D20416C61726D56616C7565200D0A6B
:101BC0000000000025733A2050657263656E742032
:101BD0003C3D203230200D0A0000000030A00AF009
:101BE00045FA06F0CFFE40F2102041F6BE24C2F2C4
:101BF00000000121C2F202040160204600214FF4DE
:101C000080624FF00009FEF76FFC41F6C060C2F23F
:101C1000020041F6BE66C0F8009041F6C46041F291
:101C20005C3542F2D02AC2F20206C2F20200C2F2CF
:101C30000205C2F2020A0FF28408A6F8009080F8AA
:101C4000009007E0204600214FF48062FEF74CFC34
:101C5000A6F8009000204FF0FF312A464FF0FF33E6
:101C60000AF07CF829680006ECD00129EAD1204668
:101C700004F0FCF8DAF8001001290DD0074600281E
:101C8000E0D0384601F034FE404639460AF0EEF91D
:101C900038460AF00FFAD5E702F0CCF807F006F85C
:101CA000424C455F574946495F4170705461736BC0
:101CB0002052756E6E696E670D0A00007265706C59
:101CC00079207769666920646174613A0D0A257329
:101CD0000D0A00002DE9F04788B0202003F0D6FE61
:101CE00041F60030C0F2B70000F070FF49F208186A
:101CF000C0F21008404600F09FFC40F6182AC4F2DB
:101D0000000ADAF800004DF6000940F04000C0F289
:101D1000B859CAF80000484600F058FF4FF48070E8
:101D200003F0B4FE4FF4801003F0B0FE42F2004026
:101D3000C0F2F40000F028FFDAF8000040F02000C4
:101D4000CAF8000043F22000C4F20100016841F02B
:101D500080710160DAF8000040F00400CAF8000069
:101D6000484603F0A5FE484600F022FE4FF40370FB
:101D700000F062FC4FF4007003F088FE4FF40000A6
:101D800003F084FE4CF67C40C0F2010090E88E0027
:101D9000D0E90454D0E906608DE88E00CDE9045402
:101DA000CDE90660684600F085FE0820002101228A
:101DB000012700F0EBFD08204FF48071002200F0B5
:101DC000E5FD09200021012200F0E0FD09204FF48B
:101DD0008071002200F0DAFD0A200021012200F0CB
:101DE000D5FD0A204FF48071002200F0CFFD0B20BA
:101DF0000021012200F0CAFD0B204FF48071002267
:101E000000F0C4FD0C200021012200F0BFFD0C20D9
:101E10004FF48071002200F0B9FD0D200021012255
:101E200000F0B4FD0D204FF48071002200F0AEFDF3
:101E30000E200021012200F0A9FD0E204FF4807138
:101E4000002200F0A3FD20200121002200F09EFDD1
:101E500022200021012200F099FD222002210022EF
:101E600000F094FD23200021012200F08FFD2320AB
:101E70000121002200F08AFD08F5801000F0DCFB53
:101E800040F2144000F0D8FB40F2153000F0D4FBD3
:101E900040F2163000F0D0FB40F2173000F0CCFBDF
:101EA0004FF4467000F0C8FB40F2193000F0C4FB5C
:101EB00040F21A3000F0C0FB4FF4007000F0BCFBA1
:101EC00040F2031000F0B8FB40F2044000F0B4FB15
:101ED00040F2054000F0B0FB40F2065000F0ACFBD1
:101EE0004FF66800CFF6FF705AF8001067F3020152
:101EF0004AF8001040F21400C2F20000C0F800904E
:101F000008B0BDE8F087000080B542F20000C4F2DE
:101F1000080001F0C7F901F0CBF800F0E5FE00F091
:101F200005FF00F021FF01F0CDFB01F04DFC01F0B9
:101F300057FD01F0BBFD01F0FDFD03F0A7FC04F02F
:101F4000B1F9BDE8804006F09BBA0000F0B591B051
:101F50000B2000F0A5FB0D2000F0A2FB0E2000F0EE
:101F60009FFB0F2000F09CFB4CF20004C4F208041D
:101F700001250DF14203204600210422ADF8425014
:101F8000002601F0E1FF10AB204600210522ADF84C
:101F9000406001F0D9FF0DF13E03204600210722E9
:101FA000ADF83E5001F0D0FF0FAB204600210A22D1
:101FB000ADF83C5001F0C8FF40F201170DF13A03B3
:101FC000204600210D22ADF83A7001F0BDFF0EABA6
:101FD000204600210E22ADF8387001F0B5FF0DF15A
:101FE0003603204600210F22ADF8367001F0ACFF19
:101FF0000DAB204600211022ADF8347001F0A4FF93
:102000000DF13203204600211122ADF8326001F0BB
:102010009BFF0CAB204600211222ADF8307001F07E
:1020200093FF0DF12E03204600211322ADF82E5010
:1020300001F08AFF0BAB204600211422ADF82C5092
:1020400001F082FF0DF12A03204600211522ADF890
:102050002A6001F079FF0AAB204600211822ADF872
:10206000285001F071FF0DF12603204600211922AE
:10207000ADF8265001F068FF09AB204600211F2271
:10208000ADF8247001F060FF0DF12203204601211C
:102090000022ADF8226001F057FF08AB2046012175
:1020A0000122ADF8205001F04FFF0DF11E03204634
:1020B00001210222ADF81E5001F046FF07AB204679
:1020C00001210322ADF81C5001F03EFF0DF11A036F
:1020D000204601210622ADF81A5001F035FF06AB6B
:1020E000204601210922ADF8187001F02DFF0DF1F5
:1020F0001603204601210A22ADF8165001F024FFF4
:1021000005AB204601210E22ADF8145001F01CFF52
:102110000DF11203204601210F22ADF8125001F0FB
:1021200013FF04AB204601211122ADF8107001F01D
:102130000BFF0DF10E03204601211322ADF80E50C6
:1021400001F002FF03AB204601211422ADF80C7010
:1021500001F0FAFE0DF10A03204601211522ADF827
:102160000A7001F0F1FE02AB204601211922ADF800
:10217000087001F0E9FE0DF10603204601211A2244
:10218000ADF8065001F0E0FE01AB204601211B2214
:10219000ADF8045001F0D8FE0DF1020320460121F4
:1021A0001C22ADF8027001F0CFFE1D25C0F60045DF
:1021B000A4F5062605F115023046002102F0A0FF25
:1021C00005F121023046012102F09AFF304602213A
:1021D0002A4602F095FF304600214FF0806202F05F
:1021E0008FFF45F20000CFF6F770215840F203153B
:1021F000294321F00C01215045F20400CFF6F7707D
:10220000215840F23F32914301F22311215045F20F
:102210002800CFF6F770215841F4807121F00F01AA
:10222000215000F039FF45F22C00CFF6F77021580D
:1022300041F4837121F00901215000F02DFF45F296
:102240003000CFF6F770215841F4837121F0090175
:10225000215045F23400CFF6F770215841F49071C7
:1022600021F01F01215045F23800CFF6F7702158B8
:1022700041F4907121F01F01215000F00DFF45F253
:102280003C00CFF6F770215841F4907121F01F0106
:10229000215045F24000CFF6F770215841F480718B
:1022A00021F00F01215045F24400CFF6F77021587C
:1022B00041F4807121F00F01215000F0EDFE45F254
:1022C0004800CFF6F770215840F2071241F48071B0
:1022D00021F00F01215045F24C00CFF6F770215844
:1022E00041F4807121F00F01215045F20800CFF632
:1022F000F7702158394321F00E01215045F250006A
:10230000CFF6F770215841F4807121F00F01215070
:1023100045F25400CFF6F770215841F4807121F056
:102320000F01215045F25800CFF6F77021581143A4
:1023300021F00801215045F26000CFF6F7702158D6
:1023400040F2411241F4807121F00F01215045F219
:102350006400CFF6F770215841F4807121F00F012D
:10236000215045F26800CFF6F7702158394321F02B
:102370000E01215045F26C00CFF6F7702158394319
:1023800021F00E01215045F27000CFF6F770215870
:10239000114321F03E01215045F27400CFF6F77051
:1023A000215841F4807121F00F01215045F20C00B9
:1023B000CFF6F7702158394321F00E01215045F234
:1023C0007800CFF6F7702158114321F03E012150DB
:1023D00000F062FE45F27C00CFF6F770215841F420
:1023E000907121F01F01215045F21000CFF6F770D7
:1023F000215841F4807121F00F01215045F2140061
:10240000CFF6F770215841F4807121F00F0121506F
:1024100045F21C00CFF6F770215841F4807121F08D
:102420000F01215045F22000CFF6F77021582943C3
:1024300021F00C01215000F02FFE45F22400CFF6D0
:10244000F7702158294321F00C01215000F024FE9F
:1024500045F28000CFF6F770215841F4807121F0E9
:102460000F01215045F28400CFF6F770215841F456
:10247000807121F00F01215045F2A800CFF6F770CE
:10248000215841F4807121F00F01215045F2B00034
:10249000CFF6F770215841F4917121F01D012150C0
:1024A00045F2B400CFF6F770215841F4817121F064
:1024B0000D01215045F2B800CFF6F770215841F4D4
:1024C000807121F00F01215045F2BC00CFF6F7706A
:1024D000215841F4807121F00F01215045F2C000D4
:1024E000CFF6F770215841F4917121F01D01215070
:1024F00045F2C400CFF6F770215841F4907121F0F5
:102500001F01215045F2C800CFF6F770215841F461
:10251000807121F00F01215045F2CC00CFF6F77009
:10252000215841F4807121F03F01215045F288008B
:10253000CFF6F770215841F4807121F00F0121503E
:1025400045F2D000CFF6F770215841F4907121F098
:102550001F01215045F2D400CFF6F770215841F405
:10256000907121F01F01215045F2E400CFF6F77081
:10257000215841F4807121F00F01215045F2E8000B
:10258000CFF6F770215841F4807121F00F012150EE
:1025900045F2EC00CFF6F770215841F4807121F03C
:1025A0000F01215045F2F000CFF6F770215841F4A9
:1025B000807121F00F01215045F28C00CFF6F770A9
:1025C000215841F4807121F00F01215045F2F800AB
:1025D000CFF6F770215841F4807121F00F0121509E
:1025E00045F29000CFF6F7702158294321F00C01F5
:1025F000215045F29800CFF6F770215841F48071D0
:1026000021F00F01215045F29C00CFF6F7702158C0
:1026100041F4807121F00F01215000F03DFD45F2A1
:10262000A400CFF6F770215841F4807121F00F011A
:10263000215011B0F0BD000080B540F00041B1F173
:10264000004F23D040F2980E40F2602C0023C4F2D9
:10265000020EC4F2000C01050BD101E04CF822106F
:10266000002B18BF80BD000B4FF001030ED00105F9
:10267000F6D0C0F30321C2B201393F2AC9B2EDD16D
:10268000DEF800201143CEF80010E9E780BD00001D
:1026900040F22020C4F200004FF0806101607047DA
:1026A000010AC0B2012202FA00F040F22022C4F274
:1026B000000242F821007047010AC0B2012202FA6A
:1026C00000F040F22022C4F2000242F821007047DC
:1026D000010AC0B2012202FA00F040F22022C4F244
:1026E000000242F821007047010AC0B2012202FA3A
:1026F00000F040F22022C4F2000242F821007047AC
:10270000010AC0B2012202FA00F040F22022C4F213
:10271000000242F82100704740F22020C4F200007D
:102720004FF4000101607047010AC0B2012202FAB1
:1027300000F040F22022C4F2000242F8210070476B
:1027400010B540F28824C4F20004216807291FD87C
:102750000020DFE801F0040A071013150D1500F042
:1027600023F80DE000F044F80AE000F001F907E07A
:1027700000F0D0F804E000F093F801E000F082F8F7
:10278000D4F8FC10012252FA81F1B0FBF1F010BD37
:102790004CF6EB504CF60161C0F20100C0F20101B1
:1027A0004FF4EA7206F094FA40F28020C4F200007E
:1027B0004168032908BF00F0ADB8012908BF00F047
:1027C000D7B899B90168002908BF00F04DB8016871
:1027D000012908BF00F00CB80168022908BF00F009
:1027E00051B80068032808BF00F05AB800207047AD
:1027F00043F22000C4F2010040F228010068C2F256
:1028000000010968C00101EAE0707047014609282B
:102810004FF0000088BF7047DFE801F00507171987
:10282000161B1D1F2123FFF7BFBF80B5FFF7BCFF9D
:1028300040F28031C4F200010968012252FA81F1AC
:10284000B0FBF1F0BDE880407047FFF779BF00F0C2
:1028500027B800F039B800F007B8FFF7C9BF00F09B
:1028600087B800F02BB8000043F21000C4F201005A
:10287000006841F600314004C0F2B70101EAE0709F
:102880007047000040F61820C4F20000006844F2CF
:1028900040214006C0F20F0101EAE07070470000DD
:1028A00043F21000C4F2010000684DF60001400040
:1028B000C0F2B85101EAE0707047000042F6E05003
:1028C000C2F202000068704710B540F2E024C4F282
:1028D00000042068072808D0012803D070B9FFF74A
:1028E000DFFF03E000F044F800E00020D4F8CC1053
:1028F000012252FA81F1B0FBF1F010BD4CF6EB5021
:102900004CF60161C0F20100C0F2010140F239222F
:1029100006F0DEF99820C4F20200016A490605D4E7
:102920000168C90704BF4FF400407047016A0906F7
:102930004FBF00200068C00380B2704740F2902073
:10294000C4F20000006800F00701032909D841F62D
:102950000030C0F2B700DFE801F005020608FFF71B
:1029600047BF00207047FFF78DBFFFF7D3BF0000C0
:1029700042F6E450C2F202000068704740F2845010
:10298000C4F20000006800F001007047002A40F225
:102990000032C4F200021CBF4FF0005342F8203056
:1029A0004B1E002908BF4FF0804342F8203070478B
:1029B0004DF6C101C0F2A701884201D2002157E0C3
:1029C0004BF28111C0F24F11884201D201214FE038
:1029D00048F64121C0F2F711884201D2022147E0B6
:1029E00046F20131C0F29F21884201D203213FE02B
:1029F00043F6C131C0F24731884201D2042137E0A9
:102A000041F28141C0F2EF31884201D205212FE02D
:102A10004EF64151C0F29641884201D2062127E08C
:102A20004CF20161C0F23E51884201D207211FE001
:102A30004EF20111C0F2F551884201D2082117E08F
:102A40004CF2C121C0F2DA61884201D209210FE0C3
:102A50004AF28141C0F2BF71884201D20A2107E0E7
:102A60004DF28112C0F6F0020C21904238BF0B21CA
:102A700044F6E872C4F203021F2344F28000C4F259
:102A800003001360026822F00F020A44026002226F
:102A900040F8802CD0F8602F5207FBD540F2004060
:102AA000C4F20000026822F4704242EA013101607F
:102AB00070470000B0B5044640F294554FF40070E2
:102AC000C4F2000502F0EEFF4FF4000002F0EAFF4E
:102AD00094E8070045F8140C41F4807045F80C1C8C
:102AE00045F80C0C42F0200045F8082C45F8080C7D
:102AF000206945F8040C60692860606940F08060D6
:102B000040F0020028604FF4007002F0C5FF4FF45F
:102B1000000002F0C1FF207F80072DD528684FF606
:102B20000041C0F2FF31084215D0FFF707FF05460C
:102B300006F0DCFBB5FBF0F04AF26061A0F5C030B6
:102B4000A0F5D460C0F22F1188420DD8FFF716FF10
:102B50000028FBD010E04DF28011C0F6F00141F2E8
:102B6000707003F0CFFB07E04DF28011C0F6F0016A
:102B700041F2707003F0C6FBA16942F6E452C2F262
:102B8000020200201160B0BD10B5044644F2FF708F
:102B9000C0F2E810844284BF012010BD4FF4807061
:102BA00002F07AFF4FF4801002F076FF40F6182012
:102BB000C4F20000016841F02001016040F22800E9
:102BC000C2F200000460002010BD0000B0B5044651
:102BD00041F60030C0F2B7004DF600058442C0F265
:102BE000B85518BFAC421AD140F24810C4F20000E8
:102BF0004FF000610160C0F8E010202002F04CFFAF
:102C000043F21000C4F2010001684FF48042AC426C
:102C100008BF4FF08042114301600020B0BD46F66E
:102C20000040C0F2DC2084421CBF0120B0BDDBE7C5
:102C300010B502F02BFD05F0E1FF43F20004C2F2F3
:102C4000030448F2000140F64432C0F2000120467D
:102C5000C0F20002FDF72BFC204608F0E1F943F238
:102C60000044C2F20204216831B900BF0A2008F012
:102C7000F1FB21680029F9D005A009F0F7F940F22D
:102C80001420C2F200000068BDE8104008F0FCBB50
:102C9000636F7265312073746172742C2073706479
:102CA0005F6D73673D307825780D0A00B0B54FF63B
:102CB000FF7299B14FF0000C4AF2010E10F80C307F
:102CC0005A4008238EEA5204D50708BF5408013B36
:102CD0002246F7D10CF1010C8C45EFD190B2B0BD7A
:102CE000002000F051B8000010B582B048F2000496
:102CF000C4F200044CF6EC31C0F20101204600F0B1
:102D0000C5F84FF0000C2046002160223023CDF89A
:102D100000C000F0F1F802B010BD0000012000F08A
:102D200033B80000022000F02FB8000010B582B0C8
:102D300048F20004C4F202044CF6F431C0F201017E
:102D4000204600F0A3F84FF0000C2046012160223D
:102D50003023CDF800C000F0CFF802B010BD000065
:102D6000032000F011B8000049F200004CF6FC31DD
:102D7000C4F20200C0F2010100F088B8042000F0A3
:102D800003B8000001607047F0B581B004464CF60E
:102D9000A040C0F2010050F82460304600F074F802
:102DA000054630462946FFF7EDFF41F26430C2F296
:102DB0000200005DB0B142F6E8770026C2F20207D9
:102DC00003E000BF0136072E19D025FA06F0C00730
:102DD000F8D057F8240050F8261000291CBF2846C8
:102DE0008847EFE742F6E870C2F2020050F824008C
:102DF000016821B1284601B0BDE8F040084701B0A4
:102E0000F0BD00004CF6A04201460020C0F20102D5
:102E100052F820308B4208BF704701300528F7D1A7
:102E20004CF63F6102A0C0F201014D2205F050FFB7
:102E3000696E7374616E6365203C206374696D65AF
:102E4000724172726179436F756E7400B2FBF0F07B
:102E500042F2CC220138C2F202021060106859B16D
:102E6000C1F1640100FB01F048F21F51C5F2EB1102
:102E7000A0FB0101490900E0411C42F2C822C2F254
:102E8000020200201160704700687047B0B5E9B1D8
:102E90000C460546FFF7B6FF4CF6B441C0F20101FF
:102EA00031F81000FFF708FC2846FFF7ABFF0DA133
:102EB00051F8200003F048F82078617800F0030012
:102EC00061F3830028676068E860B0BD4CF630604D
:102ED0004CF63F61C0F20100C0F201015C2205F036
:102EE000F7FE00BF1A0001001B00010016000100E0
:102EF00015000200160002002DE9F04F81B09A463D
:102F000093460C460646FFF77DFF8046032C4FF0A4
:102F1000010033D0726F00FA04F10A4304EB44035A
:102F20007267072572699D406FF48067DDF828900D
:102F30006F403A4098404FF48063B9F1000F18BFDA
:102F400040F4806343EA0200706106EB8400C6F837
:102F500024B0C0F818A03046FFF714FFB9F1000FF5
:102F600002BF002001B0BDE8F08F4CF6BE40C0F2B9
:102F7000010010F9080000F0C9F9002001B0BDE817
:102F8000F08F0000416841F001014160704700008E
:102F9000416821F00101416070470000B0B505F0C3
:102FA000E3FF002804BF0020B0BD044602F0BAF9D8
:102FB00004F082FC42F2D025C2F2020585ED110A2E
:102FC00000F0FEFF0028FBD0FEF7CAFC00EE100A5E
:102FD00041F2AC70C2F20200B8EE400A90ED851AE0
:102FE0004CF6C45121EE000A9FED251AC0F20101F2
:102FF00020EE010A204685ED1D0AB0EE080A05F014
:1030000041FF9FED200A4CF6C751C0F20101204656
:1030100005F038FF95ED1D0A1BA1204605F032FF93
:1030200095ED110A4CF6D351C0F20101204605F08E
:1030300029FF95ED0F0A4CF6B851C0F20101204668
:1030400005F020FF95ED130A4CF66751B8EEC00A63
:10305000C0F20101204605F015FF95F838000CA1DB
:1030600000EE100A2046B8EE400A05F00BFF20469D
:1030700006F044F80546204605F09CFF2846B0BD02
:1030800000000034000000004164635600000000AE
:10309000466C61736800000040F6FC70C4F20000EA
:1030A0000068704742F20000C4F2080000F0A6B8C1
:1030B00080B500F04BF840F2182042F20001C2F255
:1030C0000000C4F208010022BDE8804000F006B80C
:1030D00047F20000C4F20A0000F090B82DE9F04178
:1030E00028B31446172A22D2054608460E4600F099
:1030F00053F88046304600F079F80746284600210C
:103100001022FDF7F1F9AE602C730FA042F62852A1
:1031100010F908003919C2F2020242F8215000F0F9
:10312000FBF8A8682146BDE8F04100F019B84CF65C
:1031300057604CF6E961C0F20100C0F2010140F2B3
:10314000E31205F0C5FD00BF013A000042F2200085
:10315000C4F20800016841F00101016070470000FD
:1031600017290CD2C1F3421201F01F0100EB8200BB
:103170000122836C02FA01F11943816470474CF615
:10318000AB604CF6FE61C0F20100C0F2010140F2FA
:10319000871205F09DFD00000146002008A200BF37
:1031A00052F820308B4208BF704701300228F7D117
:1031B0004CF6E96104A0C0F201015D2205F088FD32
:1031C0000020084000700A40696E7374616E636588
:1031D000203C2041525241595F53495A4528735F60
:1031E000646D6142617365732900000080B5FFF76B
:1031F000D3FF172100FB01F080BD00002DE9F04353
:1032000081B0FFF7F3FF42F62851C2F2020101EB51
:10321000800900264FF0010806E000BF0136172E96
:1032200004BF01B0BDE8F08359F82640002CF5D06A
:10323000217BA06801F01F025830490950F8213065
:1032400008FA02F71F4208D040F82170256825B11E
:103250006168204601220023A847A068217B6030D6
:10326000490950F821203A4208D040F821702568D9
:1032700025B16168204601220123A847A068217B6F
:103280004030490950F821203A42C7D040F8217017
:103290002768002FC2D06168204600220223B84769
:1032A000BCE70000B0B50446FFF776FF05462046B0
:1032B000FFF772FF4CF69C41C0F2010131F810009B
:1032C000FFF706FA2046FFF767FF08A151F8200034
:1032D00002F03AFE4CF6C440C0F2010050F825005E
:1032E000A060206840F001002060B0BD1400000024
:1032F000010002000046401E0028FCD1704700007B
:1033000010F1800118BF05F081BC704710F18001F9
:1033100018BF05F08BBC704710F1800118BF05F095
:1033200095BC704710F1800118BF05F09FBC704735
:1033300010F1800118BF05F0A9BC7047B0B500209E
:1033400003F03AF905F010FE002804BF0020B0BDDC
:103350004CF6C451B2EE0E0AC0F20101044605F06B
:1033600091FD9FED100A4CF6C751C0F201012046B5
:1033700005F088FD0CA12046012205F06DFD9FEDB2
:103380000C0A4CF6C151C0F20101204605F07AFD4D
:10339000204605F0B3FE0546204605F00BFE284604
:1033A000B0BD00BF0000000053746174757300006D
:1033B00000B07F4680B548F2304CC2F2020CDCF817
:1033C00000C0BCF1020F0CD142F6245E44F23B1C5B
:1033D000C2F2020EC1F2003CCEF800C0BDE880404F
:1033E000604741F2001CC1F2003CDCF800C0BCF1B7
:1033F000000F04D0DCF808C0BDE8804060474CF600
:10340000EF704DF20701C0F20100C0F20101B522D8
:1034100005F05EFC41F20011C1F200310A685AB1B8
:103420006022826211F80A2C48F23043C2F2020391
:103430001A600968496808474CF6EF704DF20701B9
:10344000C0F20100C0F20101A52205F041FC00001C
:1034500080B548F2304CC2F2020CDCF800C0BCF17E
:10346000020F0CD142F6245E44F29D1CC2F2020E01
:10347000C1F2003CCEF800C0BDE88040604741F298
:10348000001CC1F2003CDCF800C0BCF1000F04D00D
:10349000DCF80CC0BDE8804060474CF6EF704DF2A0
:1034A0000701C0F20100C0F20101C42205F010FCC6
:1034B0002DE9F04385B01C4615461A4601230E46F9
:1034C000804605F023FF10B105B0BDE8F08304B3DA
:1034D0000DF1040902E000BF002CF5D026F00F0723
:1034E000404639464A4600F019F80028ECD1002140
:1034F0002CB900BF01311029EED0002CFAD07A1877
:10350000B242F7D119F80120013605F8012B013C30
:10351000F0E7002005B0BDE8F0830000F0B581B011
:103520009AB31446102210230D46064605F0EEFE0F
:1035300048BB44F6E870C4F203000F2144F2800750
:103540000160C4F20307280947F8700C96F82C00B4
:103550004FF4406101EA402100F0010241EA82019A
:1035600000F0080041EA00303860032047F8800C82
:1035700005F0F0FE38B9002157F8212044F8212049
:1035800001310429F8D101B0F0BD042001B0F0BD33
:10359000002A08BF70472DE9F04F81B08B466FF3CA
:1035A0005F2B42F6E858144681464D0ACBF500776A
:1035B000C2F202084FF4007A974228BF1746EFF391
:1035C000108072B66E02304641464FF4007206F02B
:1035D000A1F830464FF4007106F06AF8BFB25FB14F
:1035E00008EB0B000138A9F101013A4611F8013F3F
:1035F000013A00F8013FF9D1304641464FF40072DC
:1036000006F09EF8BC420AD0E41BB94427460135B7
:10361000B4F5007F28BF57464FF0000BD2E762B6E3
:1036200001B0BDE8F08F0000002804BF04207047FF
:1036300044F28001C4F203010A6890F8380060F394
:10364000030202200A6041F8800C0020704700004D
:10365000002804BF0420704790F8311090F8300023
:1036600001F0030160F3830144F20000C4F203009F
:10367000C0F880100E2101600020704743F2A03096
:10368000C2F2020002684AB143F27C30C2F2020088
:10369000016846F20000C4F2080010474CF61371AE
:1036A00002A0C0F20101B62205F012FB735F666C46
:1036B0006578636F6D6D49727148616E646C657297
:1036C0005B305D0080B50B20C0F2010002F03CFCD5
:1036D00046F200004CF61C4146F60042C4F20800D7
:1036E000C0F20101C0F2DC22BDE8804003F0BAB8AC
:1036F00043F2A030C2F2020042684AB143F27C3089
:10370000C2F20200416847F20000C4F2080010470C
:103710004CF6137102A0C0F20101C32205F0D8FAE1
:10372000735F666C6578636F6D6D49727148616E29
:10373000646C65725B315D0043F2A030C2F202003E
:1037400082684AB143F27C30C2F20200816848F2DA
:103750000000C4F2080010474CF6137102A0C0F23A
:103760000101D02205F0B4FA735F666C6578636F6F
:103770006D6D49727148616E646C65725B325D009B
:1037800080B504F039F910F0420F1BD004F0E2F9D3
:1037900041F2A87CC2F2020CBCF800100023B3EB8B
:1037A000912F41F2AA73C2F202034FF001021A7084
:1037B00018BF80BD4A1CACF8002041F2A832C2F20A
:1037C0000202505480BD000080B50D20C0F20100FF
:1037D00002F0BAFB48F200004CF6344141F60032E8
:1037E000C4F20800C0F20101C0F2B702BDE8804097
:1037F00004F008B943F2A030C2F20200C2684AB134
:1038000043F27C30C2F20200C16849F20000C4F207
:10381000080010474CF6137102A0C0F20101DD222E
:1038200005F056FA735F666C6578636F6D6D49726B
:103830007148616E646C65725B335D0010B504F0B5
:10384000D5F810F0420F4FD004F07CF941F6C46C6B
:1038500041F6BE63C2F2020C0121C2F202038CF8EF
:103860000010198841F6C0640022C2F20204B2EBD3
:10387000912F226042F2D02441F6BE2EC2F2020401
:10388000C2F2020EE26203D14A1C1A800EF8010055
:1038900094F834101888062914D125D140F2EE315D
:1038A000884221D340F20C20C2F2000000210068BF
:1038B0008CF8001001210122002308F037F9BFF332
:1038C0004F8F10BD704410F8010C7D280CD140F2D0
:1038D0000C20C2F20000002100688CF800100121C9
:1038E0000122002308F022F9BFF34F8F10BD000022
:1038F00010B50446FCF71FFE024649F20000C4F270
:1039000008002146BDE8104004F0AAB9F0B581B026
:1039100041F6C464C2F20204207800284FD040F27D
:103920001020C2F200000068002848D041F6C062B2
:1039300042F2D021C2F20202C2F20201106891F8F2
:10394000341001300629106027D1B0F57A7F36D3C4
:1039500041F6BE65C2F2020500202988106019A058
:1039600008F084FB288878B141F6BE270026C2F211
:10397000020719A4F0B2395C204608F077FB013643
:103980002888F1B28842F5D840F20C20C2F200003B
:1039900000680121012200230CE064280FD340F2CB
:1039A0000C20C2F2000000270068176002210122EB
:1039B0000023277001B0BDE8F04008F0B7B801B0AF
:1039C000F0BD00BF0A526563656976652074696D54
:1039D00065206F75740A00002530327820000000E1
:1039E00010B50E20C0F2010002F0AEFA49F2000458
:1039F000C4F208044CF6444141F60032C0F2010121
:103A00002046C0F2B70203F0FDFF204603F0EAFFB4
:103A10001120BDE81040FFF773BC000043F2A03056
:103A2000C2F2020002694AB143F27C30C2F20200E3
:103A300001694AF20000C4F2080010474CF6137105
:103A400002A0C0F20101EA2205F042F9735F666C40
:103A50006578636F6D6D49727148616E646C6572F3
:103A60005B345D0043F2A030C2F2020042694AB109
:103A700043F27C30C2F20200416946F20000C4F217
:103A8000090010474CF6137102A0C0F20101F822A0
:103A900005F01EF9735F666C6578636F6D6D497232
:103AA0007148616E646C65725B355D0010B5102005
:103AB000C0F2010002F048FA46F20004C4F2090420
:103AC0004CF6544141F60032C0F201012046C0F2EA
:103AD000B70203F097FF204603F084FF1320BDE8F0
:103AE0001040FFF70DBC000043F2A030C2F202000C
:103AF00082694AB143F27C30C2F20200816947F226
:103B00000000C4F2090010474CF6137103A0C0F284
:103B1000010140F2051205F0DBF800BF735F666C2F
:103B20006578636F6D6D49727148616E646C657222
:103B30005B365D0080B51120C0F2010002F004FA8E
:103B400047F200004CF6644141F60032C4F209002D
:103B5000C0F20101C0F2B702BDE8804002F082BEAF
:103B600043F2A030C2F20200C2694AB143F27C3093
:103B7000C2F20200C16948F20000C4F20900104715
:103B80004CF6137103A0C0F201014FF4897205F0E5
:103B90009FF800BF735F666C6578636F6D6D4972E7
:103BA0007148616E646C65725B375D0043F2A030F2
:103BB000C2F20200026A4AB143F27C30C2F2020051
:103BC000016A4FF20000C4F2090010474CF613716D
:103BD00003A0C0F2010140F21F1205F079F800BF06
:103BE000735F666C6578636F6D6D49727148616E65
:103BF000646C65725B385D000146002008A200BF5E
:103C000052F820308B4208BF704701300928F7D1A5
:103C10004CF613710BA0C0F201016A2205F058F8AE
:103C20000060084000700840008008400090084094
:103C300000A0084000600940007009400080094071
:103C400000F0094069203C2046534C5F46454154F2
:103C50005552455F534F435F464C4558434F4D4D7A
:103C60005F434F554E54000070B50C460546FFF7B4
:103C7000C3FF06464CF6CC40C0F2010030F81600F7
:103C8000FEF732FD05A050F8260002F05DF9284647
:103C90002146BDE8704000F027B800BF0B000100CE
:103CA0000C0001000D0001000E0001000F000100DA
:103CB0001000010011000100120001001C000200B0
:103CC000002904BF01207047042905D8D0F8F80F57
:103CD000C840C0F3C0007047052911BF0020D0F8CC
:103CE000F80FC0B2C0097047B0B50C460546FFF7E3
:103CF000E7FF002804BF0320B0BDD5F8F80F000788
:103D000007D5D5F8F80F00F00700A0421CBF01202E
:103D1000B0BD0020C5F8F84FB0BD000070B584B04C
:103D200042F28435C2F202054FF4082029464FF4CE
:103D3000007205F0EFFC42F2D024C2F202042046E9
:103D400029460422FCF7B3FB201D291D0422FCF7A1
:103D5000AEFB04F1080005F108010422FCF7A7FB03
:103D600004F10C0005F10C010422FCF7A0FB04F1A6
:103D7000100005F110010422FCF799FB04F1140076
:103D800005F114010422FCF792FB04F1180005F17F
:103D900018010422FCF78BFB04F1500005F11C0113
:103DA0000422FCF784FB04F1810005F120010422C8
:103DB000FCF77DFB41F2AC76C2F2020606F5057017
:103DC00005F124010422FCF772FBD6F81402256DDC
:103DD000FCF7FCFF41EC100B94F8813004A08DED52
:103DE000000B10A12A46029308F040F904B070BD00
:103DF00025733A2062617452656741433D307825EE
:103E0000782C20626961733D25662C2057696669AC
:103E1000426C65496E6974466C61673D25640D0AA4
:103E200000000000466C6173685F52656164506118
:103E30007261000070B541F2AC7048F65C7142F2FC
:103E4000843542F2D024C2F20200C4F20201C2F26E
:103E50000205C2F20204C0F8141200F505762846E5
:103E600021460422FCF723FB281D211D0422FCF718
:103E70001EFB05F1080004F108010422FCF717FB02
:103E800005F10C0004F10C010422FCF710FB05F114
:103E9000100004F110010422FCF709FB05F11400E5
:103EA00004F114010422FCF702FB05F1180004F1EF
:103EB00018010422FCF7FBFA05F11C0004F1500183
:103EC0000422FCF7F4FA05F1200004F18101042238
:103ED000FCF7EDFA05F1240031460422FCF7E7FA7D
:103EE0004FF408204FF4007105F0E2FB4FF4082076
:103EF00029464FF4007205F023FCE06C606570BD4C
:103F000042F20000C4F20000016841F001010160CA
:103F100043F2C430C2F202000068002808BF7047B4
:103F20000047000043F20000C4F20000016841F0C5
:103F30000101016043F2C430C2F20200406800286F
:103F400008BF70470047000093F800C0BCF1000FA5
:103F500013D000EB81005B784FF0010C0CFA02F1FA
:103F600000F50852002B08BF00F50A5211604FF40B
:103F70000052835819438150704700EB81004FF481
:103F800000514FF0010C43580CFA02F223EA0202EE
:103F90004250704701EB40104CF20001C4F208019E
:103FA000405C70474CF21500C4F20800007870477E
:103FB00001EB40104CF20001C4F20801405C704774
:103FC0004CF21500C4F20800007870474CF235003E
:103FD000C4F20800007870474CF20D00C4F20800EB
:103FE0000078704701EB40104CF20001C4F2080168
:103FF0004254704701EB40104CF20001C4F208013A
:104000004254704701EB40104CF20001C4F2080129
:10401000425470474CF22600C4F20800002101709F
:10402000704700004CF20F01C4F20801087070479D
:104030004CF22002C4F20802815470474CF2000294
:10404000C4F20802815470474EF20032C4F20802F2
:1040500042F8201070470000B0B504F085FF00283A
:1040600004BF0020B0BD4CF6C451B1EE000AC0F24E
:104070000101044604F006FF9FED140A4CF6C751F7
:10408000C0F20101204604F0FDFE42F2D025C2F24A
:10409000020595ED130A4CF66751B8EEC00AC0F25E
:1040A0000101204604F0EEFE95ED0F0A4CF6B851E2
:1040B000C0F20101204604F0E5FE204605F01EF89E
:1040C0000546204604F076FF2846B0BD00000000FB
:1040D000F0B581B04CF69B51C0F20101044604F0EA
:1040E00093FF002814BF4569002530A1204604F045
:1040F0008BFF20B146690A2E03DD0A2604E0012663
:1041000002E0012ED8BF01260D2006FB00F0471C5F
:10411000384608F011F800213A460446FCF7E4F965
:1041200028463146224604F0C7FB04F01DFFD0B3F9
:104130004CF6C451B2EE0A0AC0F20101054604F081
:10414000A1FE9FED1B0A4CF6C751C0F201012846A3
:1041500004F098FE17A12846224604F0A9FE41F279
:104160004436C2F2020696ED000A14A1B8EE400AE7
:10417000284604F087FE96ED030A4CF6C151B8EECE
:10418000400AC0F20101284604F07CFE284604F0F3
:10419000B5FF0646284604F00DFF204607F08AFFCB
:1041A000304601B0F0BD002001B0F0BD4E0000006F
:1041B000000000004E616D6500000000540000002A
:1041C000B0B503F079FB42F2D025C2F2020585EDCD
:1041D000110A04F0C9FE002804BF0020B0BD4CF64F
:1041E000C451B2EE060AC0F20101044604F04AFED0
:1041F0009FED0D0A4CF6C751C0F20101204604F0B4
:1042000041FE95ED110A4CF6D351C0F20101204652
:1042100004F038FE204604F071FF0546204604F005
:10422000C9FE2846B0BD00BF000000002DE9F04FD8
:1042300081B02DED028B82B042F2D0284CF6C751EE
:10424000C2F202084FF0000AC0F20101C8F864A0EF
:1042500004F0DAFE41F2AC7BB2EE028A4469C2F2AB
:10426000020B0020DBF81C92019041F6C560254648
:104270000027C2F202000026009400BF2946D8F8A9
:1042800064504C4518BF0D46022D1CD804F06CFE3E
:10429000002800F040824CF6C451B0EE480AC0F24B
:1042A0000101074604F0EEFD00EE105A4CF6C7512E
:1042B000B8EE400A3846C0F2010104F0E3FD41F6D1
:1042C000C560C2F20200022D28D0012D00F0E0806E
:1042D000002D40F0718140F21800C2F20000008809
:1042E0004CF6A95100EE100A3846B8EE400AC0F26A
:1042F000010104F0C7FD4CF68C510BF10102384668
:10430000C0F2010104F0D4FD4CF692510BF1810290
:104310003846C0F2010104F0CBFD47E19BED540AA1
:104320004CF66351B8EEC00A3846C0F2010104F001
:10433000A9FD9BED550A4CF683513846C0F20101A8
:1043400004F0A0FD9BED560A4CF69D51B8EEC00A54
:104350003846C0F2010104F095FD9BED570A4CF67A
:104360007F51B8EEC00A3846C0F2010104F08AFD60
:104370009BED580A4CF67551B8EEC00A3846C0F2AB
:10438000010104F07FFD9BED590A4CF68951B8EE0E
:10439000C00A3846C0F2010104F074FD9BED5A0AD0
:1043A0004CF695513846C0F2010104F06BFD9BEDCF
:1043B0005B0A4CF696513846C0F2010104F062FDEA
:1043C0009BED5C0A4CF686513846C0F2010104F0C0
:1043D00059FD9BED5D0A4CF679513846C0F201015A
:1043E00004F050FD9BED870A4CF67C51B8EE400A74
:1043F0003846C0F2010104F045FD43F2F836C2F23E
:10440000020630884CF6BF5100EE100A3846B8EE6E
:10441000400AC0F2010104F035FDB0784CF68A5133
:1044200000EE100A3846B8EE400AC0F2010104F06E
:1044300029FDF0784CF66D5100EE100A3846B8EEC2
:10444000400AC0F2010104F01DFD30794CF67A51AA
:1044500000EE100A3846B8EE400AC0F2010104F03E
:1044600011FD70794CF6CB5100EE100A3846B8EECB
:10447000400AC0F2010104F005FDB0794CF69B51F1
:1044800000EE100A3846B8EE400AC0F201018BE097
:104490004CF6B2510BF201123846C0F2010104F0A1
:1044A00007FD4CF6AF510BF209123846C0F201017C
:1044B00004F0FEFC9BF800004CF6A05100EE100A40
:1044C0003846B8EE400AC0F2010104F0DBFC9BED77
:1044D000450A4CF6A6513846C0F2010104F0D2FC60
:1044E0009BED460A4CF66C513846C0F2010104F0CF
:1044F000C9FC9BED470A4CF6A351B8EEC00A3846FA
:10450000C0F2010104F0BEFC4CF6AC510BF5907208
:104510003846C0F2010104F0CBFC9BED4A0A4CF690
:10452000BD51B8EEC00A3846C0F2010104F0AAFC41
:104530009BED500A4CF67251B8EEC00A3846C0F2F4
:10454000010104F09FFC9BED510A4CF66F51B8EE4F
:10455000C00A3846C0F2010104F094FC9BED520AF7
:104560004CF69851B8EEC00A3846C0F2010104F08A
:1045700089FC9BED530A4CF68751B8EEC00A3846C9
:10458000C0F2010104F07EFC9BED850A4CF66551FA
:104590003846C0F2010104F075FC9BED860A4CF62A
:1045A000B5513846C0F2010104F06CFC384604F005
:1045B000A5FD06467CE000BF00214FF48062444622
:1045C000C8468146FBF790FFE72089F80000E82005
:1045D00089F80100280A89F80300E06EE91EA44664
:1045E000814289F8025024D241F22C2240F23C5000
:1045F000C2F2000201FB00200021021FA9F103000A
:1046000092ED010A0131BCEEC00A043210EE103AFC
:10461000B1F5A77FC3714FEA13244FEA1343047225
:10462000437200F10300EBD940F2F1304FF0000A81
:1046300029E043F20042C2F202021268091A93888A
:1046400099421FD240F29E2305FB03F1C14600FBB5
:10465000131041F6C5611044C2F20201A0F2D670F7
:104660000339002210F8023F0132CB71B2F5A77F67
:1046700043780B7281F809A001F10301F2D940F2ED
:10468000F13001E00420C14641F6C561C2F20201E9
:104690000C460144EA22EB23225440F002024B7004
:1046A000EC23A3540430009CE0460190ED20C87038
:1046B000022DC8F82CA00BD83046FFF719F9384660
:1046C00004F078FC304607F0F5FC00260BE000BF54
:1046D00049F2000041F6C561019AC4F20800C2F235
:1046E000020103F0BDFAD8F864004C4500F1010066
:1046F000C8F8640010D1DBF81C1288420CD240F2DA
:104700001800C2F20000008806F0A4FE41F6C56061
:10471000C2F20200B2E50026304602B0BDEC028BC8
:1047200001B0BDE8F08F00002DE9F04F81B02DED14
:10473000048B84B042F2D026C2F2020600217166D8
:104740004CF6C751C0F2010104F05EFC41F2AC79B5
:10475000B3EE029AD0F814B0C2F20209D9F81C5292
:104760009FEDED8A09F1010041F6C56A019009F15A
:1047700081005C46C2F2020A00270090CDE902B532
:104780002046746EAB4518BF0446BCB350460021AA
:104790004FF48062FBF7A8FEE7208AF80000E820CB
:1047A0008AF80100200A8AF80300F06E611E814237
:1047B0008AF8024080F0B28141F22C2240F23C5053
:1047C000C2F2000201FB00200021021FAAF1030037
:1047D00092ED010A0131BCEEC00A043210EE103A2B
:1047E000B1F5A77FC3714FEA13264FEA1343067250
:1047F000437200F10300EBD9B2E100BF04F0B4FB57
:10480000002800F0FC814CF6C451B0EE490AC0F219
:104810000101074604F036FB4CF6C751B0EE480ADA
:104820003846C0F2010104F02DFB40F21800C2F23C
:10483000000000884CF6A95100EE100A3846B8EE88
:10484000400AC0F2010104F01DFB4CF68C51019AA4
:104850003846C0F2010104F02BFB4CF69251009A4D
:104860003846C0F2010104F023FB4CF6B25109F2C4
:1048700001123846C0F2010104F01AFB4CF6AF51A8
:1048800009F209123846C0F2010104F011FB99F84F
:1048900000004CF6A05100EE100A3846B8EE400A6F
:1048A000C0F2010104F0EEFA99ED450A4CF6A6516A
:1048B0003846C0F2010104F0E5FA99ED460A4CF6DB
:1048C0006C513846C0F2010104F0DCFA99ED470A58
:1048D0004CF6A351B8EEC00A3846C0F2010104F00C
:1048E000D1FA4CF6AC5109F590723846C0F201018C
:1048F00004F0DEFA99ED4A0A4CF6BD51B8EEC00A52
:104900003846C0F2010104F0BDFA99ED500A4CF6A8
:104910007251B8EEC00A3846C0F2010104F0B2FA92
:1049200099ED510A4CF66F51B8EEC00A3846C0F204
:10493000010104F0A7FA99ED520A4CF69851B8EE2D
:10494000C00A3846C0F2010104F09CFA99ED530AFE
:104950004CF68751B8EEC00A3846C0F2010104F0A7
:1049600091FA99ED850A4CF665513846C0F201017D
:1049700004F088FA99ED860A4CF6B5513846C0F233
:10498000010104F07FFA99ED540A4CF66351B8EE38
:10499000C00A3846C0F2010104F074FA99ED550AD4
:1049A0004CF683513846C0F2010104F06BFA99EDE0
:1049B000560A4CF69D51B8EEC00A3846C0F20101C5
:1049C00004F060FA99ED570A4CF67F51B8EEC00A30
:1049D0003846C0F2010104F055FA99ED580A4CF638
:1049E0007551B8EEC00A3846C0F2010104F04AFA27
:1049F00099ED590A4CF68951B8EEC00A3846C0F212
:104A0000010104F03FFA99ED5A0A4CF695513846E7
:104A1000C0F2010104F036FA99ED5B0A4CF69651AA
:104A20003846C0F2010104F02DFA99ED5C0A4CF60B
:104A300086513846C0F2010104F024FA99ED5D0A6E
:104A40004CF679513846C0F2010104F01BFA99ED99
:104A5000870A4CF67C51B8EE400A3846C0F2010194
:104A600004F010FA43F2F835C2F2020528884CF639
:104A7000BF5100EE100A3846B8EE400AC0F20101FC
:104A800004F000FAA8784CF68A5100EE100A384675
:104A9000B8EE400AC0F2010104F0F4F9E8784CF6EF
:104AA0006D5100EE100A3846B8EE400AC0F201011E
:104AB00004F0E8F928794CF67A5100EE100A3846ED
:104AC000B8EE400AC0F2010104F0DCF968794CF656
:104AD000CB5100EE100A3846B8EE400AC0F2010190
:104AE00004F0D0F9A8794CF69B5100EE100A384634
:104AF000B8EE400AC0F2010104F0C4F9384604F0EF
:104B0000FDFA80460020F0624CF65850C0F20100D9
:104B1000214607F0ABFA53E00000000043F20042E8
:104B2000C2F202021268091A938899421BD240F21B
:104B30009E2304FB03F1002600FB1310AAF10301DE
:104B40001044A0F29A20002210F8023F0132CB71EB
:104B5000B2F5A77F43780B724E7201F10301F3D9CE
:104B600040F2F13600E004260AEB0600EA21EB22CF
:104B70000AF8061046F002014270EC220AF8012001
:104B8000ED21C17042F2D0204FF00008C2F20200C5
:104B9000C0F82C804CF65850C0F20100214607F0B6
:104BA00065FA5CB149F20000321DC4F208005146BA
:104BB00003F056F8DDF808B00BE000BFDDF808B0F0
:104BC0004046FEF795FE384604F0F4F9404607F0FB
:104BD00071FA42F2D026C2F20206706E039D0130D5
:104BE000AB4570660BD1D9F81C12884207D240F24F
:104BF0001800C2F20000008806F02CFCC0E500207E
:104C000004B0BDEC048B01B0BDE8F08F2DE9F0419C
:104C100084B000218DF80E10ADF80C100291CDE992
:104C200000116BA104F0F0F948B104460069FBF7EC
:104C300082FC0C2803D121696846FBF7B2FC684668
:104C400003F0D4FD41F2AC7643F200480128C2F2F1
:104C50000206C2F202086DD19DF800009DF8011015
:104C60009DF8022000EB80009DF8033001EB40002E
:104C700002EB820143F2F83203EB410100F5B86028
:104C8000C2F202021080A1F110009DF80410907091
:104C900001EB81009DF805109DF8063001EB400006
:104CA00003EB83019DF80730103803EB4101D0700E
:104CB000A1F110009DF80810107101EB81009DF822
:104CC00009109DF80A3001EB400003EB83019DF8C9
:104CD0000B30103803EB41015071A1F11000D6F8F0
:104CE0002012907144F6D350C1F26200A1FB002360
:104CF000D8F800501A09FA2402FB1411AD880029D3
:104D0000A5FB00014FEA111000FB14554FF00107FD
:104D100018BF07EB13122B0418BF07EB111042F258
:104D2000D023C2F20203C3E91A0210440130C6F8CC
:104D30001C0207E0D8F800100020C6F81C02C6F8D4
:104D40002002888004F010F9E8B34CF6C451B2EEAA
:104D50000C0AC0F20101044604F094F89FED1F0A0A
:104D60004CF6C751C0F20101204604F08BF896EDD5
:104D7000870A4CF67C51B8EE400AC0F20101204689
:104D800004F080F896ED880A4CF6BB51B8EE400A64
:104D9000C0F20101204604F075F8D8F800004CF686
:104DA0009B518088C0F2010100EE100A2046B8EE47
:104DB000400A04F067F8204604F0A0F905462046B2
:104DC00004F0F8F800E00025284604B0BDE8F081C2
:104DD00066696C654E616D650000000000000000B2
:104DE000B0B504F0C1F8002804BF0020B0BD4CF6F7
:104DF000C451B0EE000AC0F20101044604F042F8CA
:104E00009FED2E0A4CF6C751C0F20101204604F076
:104E100039F843F20845C2F2020528884CF6BF5122
:104E200000EE100AC0F20101B8EE400A204604F07C
:104E300029F8A8784CF6CF5100EE100AC0F2010113
:104E4000B8EE400A204604F01DF8E8784CF66D51A3
:104E500000EE100AC0F20101B8EE400A204604F04C
:104E600011F828794CF67A5100EE100AC0F20101CF
:104E7000B8EE400A204604F005F868794CF6CB51AC
:104E800000EE100AC0F20101B8EE400A204603F01D
:104E9000F9FFA8794CF69B5100EE100AC0F201010F
:104EA000B8EE400A204603F0EDFF204604F026F954
:104EB0000546204604F07EF82846B0BD00000000FC
:104EC000B0B504F051F8002804BF0020B0BD4CF686
:104ED000C451B1EE040AC0F20101044603F0D2FF4E
:104EE0009FED0D0A4CF6C751C0F20101204603F0B8
:104EF000C9FF0AA10AA2204603F0DAFF0AA10BA209
:104F0000204603F0D5FF204604F0F8F80546204679
:104F100004F050F82846B0BD0000000048560000DC
:104F2000312E302E30000000535600003231303127
:104F3000303231310000000080B514200021FFF72D
:104F400077F801F0CDF915200021FFF771F8022064
:104F500004F066F914200121FFF76AF8022004F03A
:104F60005FF914200021BDE88040FFF761B8000020
:104F700080B514200021FFF75BF801F0B1F915208E
:104F80000121FFF755F8022004F04AF9142001210D
